{
  "contractName": "AaveImplementation",
  "abi": [
    {
      "inputs": [],
      "name": "DAI",
      "outputs": [
        {
          "internalType": "address",
          "name": "",
          "type": "address"
        }
      ],
      "stateMutability": "view",
      "type": "function"
    },
    {
      "inputs": [
        {
          "internalType": "address",
          "name": "_asset",
          "type": "address"
        },
        {
          "internalType": "address",
          "name": "_swapper",
          "type": "address"
        },
        {
          "internalType": "uint256",
          "name": "_initialCollateralAmount",
          "type": "uint256"
        },
        {
          "internalType": "uint256",
          "name": "_initialBorrowAmount",
          "type": "uint256"
        },
        {
          "internalType": "uint256",
          "name": "_borrowFactor",
          "type": "uint256"
        }
      ],
      "name": "leverageLong",
      "outputs": [
        {
          "internalType": "uint256",
          "name": "",
          "type": "uint256"
        },
        {
          "internalType": "uint256",
          "name": "",
          "type": "uint256"
        }
      ],
      "stateMutability": "nonpayable",
      "type": "function"
    },
    {
      "inputs": [
        {
          "internalType": "address",
          "name": "_asset",
          "type": "address"
        },
        {
          "internalType": "address",
          "name": "_swapper",
          "type": "address"
        },
        {
          "internalType": "uint256",
          "name": "_initialCollateralAmount",
          "type": "uint256"
        },
        {
          "internalType": "uint256",
          "name": "_initialBorrowAmount",
          "type": "uint256"
        },
        {
          "internalType": "uint256",
          "name": "_borrowFactor",
          "type": "uint256"
        }
      ],
      "name": "leverageShort",
      "outputs": [
        {
          "internalType": "uint256",
          "name": "",
          "type": "uint256"
        },
        {
          "internalType": "uint256",
          "name": "",
          "type": "uint256"
        }
      ],
      "stateMutability": "nonpayable",
      "type": "function"
    },
    {
      "inputs": [
        {
          "internalType": "address",
          "name": "_debtAsset",
          "type": "address"
        },
        {
          "internalType": "address",
          "name": "_asset",
          "type": "address"
        },
        {
          "internalType": "address",
          "name": "_swapper",
          "type": "address"
        },
        {
          "internalType": "uint256",
          "name": "_debtOwed",
          "type": "uint256"
        },
        {
          "internalType": "uint256",
          "name": "_totalCollateral",
          "type": "uint256"
        }
      ],
      "name": "closePosition",
      "outputs": [],
      "stateMutability": "nonpayable",
      "type": "function"
    }
  ],
  "bytecode": "0x6080604052737d2768de32b0b80b7a3454c06bdac94a69ddc7a96000806101000a81548173ffffffffffffffffffffffffffffffffffffffff021916908373ffffffffffffffffffffffffffffffffffffffff16021790555034801561006457600080fd5b506114fa806100746000396000f3fe608060405234801561001057600080fd5b506004361061004c5760003560e01c806327887ae41461005157806330802ff714610082578063526597941461009e578063e0bab4c4146100cf575b600080fd5b61006b60048036038101906100669190610e75565b6100ed565b604051610079929190610eff565b60405180910390f35b61009c60048036038101906100979190610f28565b610547565b005b6100b860048036038101906100b39190610e75565b610707565b6040516100c6929190610eff565b60405180910390f35b6100d7610b37565b6040516100e49190610fb2565b60405180910390f35b600080736b175474e89094c44da98b954eedeac495271d0f73ffffffffffffffffffffffffffffffffffffffff166323b872dd3330886040518463ffffffff1660e01b815260040161014193929190610fcd565b6020604051808303816000875af1158015610160573d6000803e3d6000fd5b505050506040513d601f19601f82011682018060405250810190610184919061103c565b50736b175474e89094c44da98b954eedeac495271d0f73ffffffffffffffffffffffffffffffffffffffff1663095ea7b360008054906101000a900473ffffffffffffffffffffffffffffffffffffffff16876040518363ffffffff1660e01b81526004016101f4929190611069565b6020604051808303816000875af1158015610213573d6000803e3d6000fd5b505050506040513d601f19601f82011682018060405250810190610237919061103c565b50610256736b175474e89094c44da98b954eedeac495271d0f86610b4f565b60008054906101000a900473ffffffffffffffffffffffffffffffffffffffff1673ffffffffffffffffffffffffffffffffffffffff16635a3b74b9736b175474e89094c44da98b954eedeac495271d0f60016040518363ffffffff1660e01b81526004016102c69291906110a1565b600060405180830381600087803b1580156102e057600080fd5b505af11580156102f4573d6000803e3d6000fd5b50505050600084905060008087905060006064878561031391906110f9565b61031d9190611182565b90506103298b82610be5565b808361033591906111b3565b92508a73ffffffffffffffffffffffffffffffffffffffff1663095ea7b38b836040518363ffffffff1660e01b8152600401610372929190611069565b6020604051808303816000875af1158015610391573d6000803e3d6000fd5b505050506040513d601f19601f820116820180604052508101906103b5919061103c565b5060008a73ffffffffffffffffffffffffffffffffffffffff1663d5bcb9b58d736b175474e89094c44da98b954eedeac495271d0f856001306040518663ffffffff1660e01b815260040161040e95949392919061124e565b6020604051808303816000875af115801561042d573d6000803e3d6000fd5b505050506040513d601f19601f8201168201806040525081019061045191906112b6565b9050736b175474e89094c44da98b954eedeac495271d0f73ffffffffffffffffffffffffffffffffffffffff1663095ea7b360008054906101000a900473ffffffffffffffffffffffffffffffffffffffff16836040518363ffffffff1660e01b81526004016104c2929190611069565b6020604051808303816000875af11580156104e1573d6000803e3d6000fd5b505050506040513d601f19601f82011682018060405250810190610505919061103c565b50610524736b175474e89094c44da98b954eedeac495271d0f82610b4f565b808361053091906111b3565b925083839650965050505050509550959350505050565b8473ffffffffffffffffffffffffffffffffffffffff166323b872dd3330856040518463ffffffff1660e01b815260040161058493929190610fcd565b6020604051808303816000875af11580156105a3573d6000803e3d6000fd5b505050506040513d601f19601f820116820180604052508101906105c7919061103c565b508473ffffffffffffffffffffffffffffffffffffffff1663095ea7b360008054906101000a900473ffffffffffffffffffffffffffffffffffffffff16846040518363ffffffff1660e01b8152600401610623929190611069565b6020604051808303816000875af1158015610642573d6000803e3d6000fd5b505050506040513d601f19601f82011682018060405250810190610666919061103c565b506106718583610c7e565b50600061067e8583610d30565b90508473ffffffffffffffffffffffffffffffffffffffff1663a9059cbb33846040518363ffffffff1660e01b81526004016106bb929190611069565b6020604051808303816000875af11580156106da573d6000803e3d6000fd5b505050506040513d601f19601f820116820180604052508101906106fe919061103c565b50505050505050565b6000808673ffffffffffffffffffffffffffffffffffffffff166323b872dd3330886040518463ffffffff1660e01b815260040161074793929190610fcd565b6020604051808303816000875af1158015610766573d6000803e3d6000fd5b505050506040513d601f19601f8201168201806040525081019061078a919061103c565b508673ffffffffffffffffffffffffffffffffffffffff1663095ea7b360008054906101000a900473ffffffffffffffffffffffffffffffffffffffff16876040518363ffffffff1660e01b81526004016107e6929190611069565b6020604051808303816000875af1158015610805573d6000803e3d6000fd5b505050506040513d601f19601f82011682018060405250810190610829919061103c565b506108348786610b4f565b60008054906101000a900473ffffffffffffffffffffffffffffffffffffffff1673ffffffffffffffffffffffffffffffffffffffff16635a3b74b98860016040518363ffffffff1660e01b81526004016108909291906110a1565b600060405180830381600087803b1580156108aa57600080fd5b505af11580156108be573d6000803e3d6000fd5b50505050600085905060008087905060005b6003811015610b23576000606488866108e991906110f9565b6108f39190611182565b9050610913736b175474e89094c44da98b954eedeac495271d0f82610be5565b808461091f91906111b3565b9350736b175474e89094c44da98b954eedeac495271d0f73ffffffffffffffffffffffffffffffffffffffff1663095ea7b38c836040518363ffffffff1660e01b8152600401610970929190611069565b6020604051808303816000875af115801561098f573d6000803e3d6000fd5b505050506040513d601f19601f820116820180604052508101906109b3919061103c565b5060008b73ffffffffffffffffffffffffffffffffffffffff1663d5bcb9b5736b175474e89094c44da98b954eedeac495271d0f8f856001306040518663ffffffff1660e01b8152600401610a0c95949392919061124e565b6020604051808303816000875af1158015610a2b573d6000803e3d6000fd5b505050506040513d601f19601f82011682018060405250810190610a4f91906112b6565b905060008190508d73ffffffffffffffffffffffffffffffffffffffff1663095ea7b360008054906101000a900473ffffffffffffffffffffffffffffffffffffffff16846040518363ffffffff1660e01b8152600401610ab1929190611069565b6020604051808303816000875af1158015610ad0573d6000803e3d6000fd5b505050506040513d601f19601f82011682018060405250810190610af4919061103c565b50610aff8e83610b4f565b8185610b0b91906111b3565b94505050508080610b1b906112e3565b9150506108d0565b508181945094505050509550959350505050565b736b175474e89094c44da98b954eedeac495271d0f81565b60008054906101000a900473ffffffffffffffffffffffffffffffffffffffff1673ffffffffffffffffffffffffffffffffffffffff1663e8eda9df83833060006040518563ffffffff1660e01b8152600401610baf9493929190611375565b600060405180830381600087803b158015610bc957600080fd5b505af1158015610bdd573d6000803e3d6000fd5b505050505050565b60008054906101000a900473ffffffffffffffffffffffffffffffffffffffff1673ffffffffffffffffffffffffffffffffffffffff1663a415bcad838360026000306040518663ffffffff1660e01b8152600401610c489594939291906113f5565b600060405180830381600087803b158015610c6257600080fd5b505af1158015610c76573d6000803e3d6000fd5b505050505050565b60008060008054906101000a900473ffffffffffffffffffffffffffffffffffffffff1673ffffffffffffffffffffffffffffffffffffffff1663573ade8185856002306040518563ffffffff1660e01b8152600401610ce19493929190611448565b6020604051808303816000875af1158015610d00573d6000803e3d6000fd5b505050506040513d601f19601f82011682018060405250810190610d2491906112b6565b90508091505092915050565b60008060008054906101000a900473ffffffffffffffffffffffffffffffffffffffff1673ffffffffffffffffffffffffffffffffffffffff166369328dec8585306040518463ffffffff1660e01b8152600401610d909392919061148d565b6020604051808303816000875af1158015610daf573d6000803e3d6000fd5b505050506040513d601f19601f82011682018060405250810190610dd391906112b6565b90505092915050565b600080fd5b600073ffffffffffffffffffffffffffffffffffffffff82169050919050565b6000610e0c82610de1565b9050919050565b610e1c81610e01565b8114610e2757600080fd5b50565b600081359050610e3981610e13565b92915050565b6000819050919050565b610e5281610e3f565b8114610e5d57600080fd5b50565b600081359050610e6f81610e49565b92915050565b600080600080600060a08688031215610e9157610e90610ddc565b5b6000610e9f88828901610e2a565b9550506020610eb088828901610e2a565b9450506040610ec188828901610e60565b9350506060610ed288828901610e60565b9250506080610ee388828901610e60565b9150509295509295909350565b610ef981610e3f565b82525050565b6000604082019050610f146000830185610ef0565b610f216020830184610ef0565b9392505050565b600080600080600060a08688031215610f4457610f43610ddc565b5b6000610f5288828901610e2a565b9550506020610f6388828901610e2a565b9450506040610f7488828901610e2a565b9350506060610f8588828901610e60565b9250506080610f9688828901610e60565b9150509295509295909350565b610fac81610e01565b82525050565b6000602082019050610fc76000830184610fa3565b92915050565b6000606082019050610fe26000830186610fa3565b610fef6020830185610fa3565b610ffc6040830184610ef0565b949350505050565b60008115159050919050565b61101981611004565b811461102457600080fd5b50565b60008151905061103681611010565b92915050565b60006020828403121561105257611051610ddc565b5b600061106084828501611027565b91505092915050565b600060408201905061107e6000830185610fa3565b61108b6020830184610ef0565b9392505050565b61109b81611004565b82525050565b60006040820190506110b66000830185610fa3565b6110c36020830184611092565b9392505050565b7f4e487b7100000000000000000000000000000000000000000000000000000000600052601160045260246000fd5b600061110482610e3f565b915061110f83610e3f565b9250817fffffffffffffffffffffffffffffffffffffffffffffffffffffffffffffffff0483118215151615611148576111476110ca565b5b828202905092915050565b7f4e487b7100000000000000000000000000000000000000000000000000000000600052601260045260246000fd5b600061118d82610e3f565b915061119883610e3f565b9250826111a8576111a7611153565b5b828204905092915050565b60006111be82610e3f565b91506111c983610e3f565b9250827fffffffffffffffffffffffffffffffffffffffffffffffffffffffffffffffff038211156111fe576111fd6110ca565b5b828201905092915050565b6000819050919050565b6000819050919050565b600061123861123361122e84611209565b611213565b610e3f565b9050919050565b6112488161121d565b82525050565b600060a0820190506112636000830188610fa3565b6112706020830187610fa3565b61127d6040830186610ef0565b61128a606083018561123f565b6112976080830184610fa3565b9695505050505050565b6000815190506112b081610e49565b92915050565b6000602082840312156112cc576112cb610ddc565b5b60006112da848285016112a1565b91505092915050565b60006112ee82610e3f565b91507fffffffffffffffffffffffffffffffffffffffffffffffffffffffffffffffff821415611321576113206110ca565b5b600182019050919050565b6000819050919050565b600061ffff82169050919050565b600061135f61135a6113558461132c565b611213565b611336565b9050919050565b61136f81611344565b82525050565b600060808201905061138a6000830187610fa3565b6113976020830186610ef0565b6113a46040830185610fa3565b6113b16060830184611366565b95945050505050565b6000819050919050565b60006113df6113da6113d5846113ba565b611213565b610e3f565b9050919050565b6113ef816113c4565b82525050565b600060a08201905061140a6000830188610fa3565b6114176020830187610ef0565b61142460408301866113e6565b6114316060830185611366565b61143e6080830184610fa3565b9695505050505050565b600060808201905061145d6000830187610fa3565b61146a6020830186610ef0565b61147760408301856113e6565b6114846060830184610fa3565b95945050505050565b60006060820190506114a26000830186610fa3565b6114af6020830185610ef0565b6114bc6040830184610fa3565b94935050505056fea264697066735822122025f8cb7b71d52a8b8674552a0c57afc67f595867657b7bea2d1f44b3d3cc2e7364736f6c634300080a0033",
  "immutableReferences": {},
  "source": "// SPDX-License-Identifier: MIT\r\npragma solidity ^0.8;\r\n\r\n\r\nimport \"./interfaces/IERC20.sol\";\r\nimport \"./interfaces/IAave.sol\";\r\n\r\ninterface swapImplementation {\r\n    function swap(address _tokenIn, address _tokenOut, uint _amountIn, uint _amountOutMin, address _to) external returns (uint);\r\n\r\n    function _getAmountOutMin(address _tokenIn, address _tokenOut, uint _amountIn) external view returns (uint);\r\n}\r\n\r\ncontract AaveImplementation {\r\n    /*\r\n         .-.\r\n        (o o) boo!\r\n        | O \\\r\n        \\   \\\r\n        `~~~'\r\n    */\r\n    ILendingPool aaveLender = ILendingPool(0x7d2768dE32b0b80b7a3454c06BdAc94A69DDc7A9);\r\n\r\n    address public constant DAI = 0x6B175474E89094C44Da98b954EedeAC495271d0F;\r\n\r\n    function leverageLong(address _asset, address _swapper, uint256 _initialCollateralAmount, uint256 _initialBorrowAmount, uint256 _borrowFactor) external returns (uint256, uint256) {\r\n        \r\n        IERC20(_asset).transferFrom(msg.sender, address(this), _initialCollateralAmount);\r\n        IERC20(_asset).approve(address(aaveLender), _initialCollateralAmount);\r\n\r\n        deposit(_asset, _initialCollateralAmount);\r\n        aaveLender.setUserUseReserveAsCollateral(_asset, true);\r\n        uint256 nextBorrow = _initialCollateralAmount;\r\n        uint256 totalBorrow;\r\n        uint256 totalCollateral = _initialCollateralAmount;\r\n        // After 3 loops law of diminishing returns really kills you\r\n        for(uint i = 0; i < 3; i++){\r\n            uint borrowAmount = (nextBorrow * _borrowFactor) / 100;\r\n            borrow(DAI, borrowAmount);\r\n            totalBorrow += borrowAmount;\r\n            // (address _tokenIn, address _tokenOut, uint _amountIn, uint _amountOutMin, address _to\r\n            IERC20(DAI).approve(_swapper, borrowAmount);\r\n            uint256 tokensBought = swapImplementation(_swapper).swap(DAI, _asset,borrowAmount, 1, address(this));\r\n            uint256 nextBorrow = tokensBought;\r\n            // Re-approving each deposit sucks, but is signficiantly safer\r\n            IERC20(_asset).approve(address(aaveLender), tokensBought);\r\n            deposit(_asset, tokensBought);\r\n            totalCollateral += tokensBought;\r\n        }\r\n        return (totalBorrow, totalCollateral);\r\n        \r\n    }\r\n\r\n    function leverageShort(address _asset, address _swapper, uint256 _initialCollateralAmount, uint256 _initialBorrowAmount, uint256 _borrowFactor) external returns (uint256, uint256) {\r\n        IERC20(DAI).transferFrom(msg.sender, address(this), _initialCollateralAmount);\r\n        IERC20(DAI).approve(address(aaveLender), _initialCollateralAmount);\r\n        deposit(DAI, _initialCollateralAmount);\r\n        aaveLender.setUserUseReserveAsCollateral(DAI, true);\r\n        uint256 nextBorrow = _initialBorrowAmount;\r\n        uint256 totalBorrow;\r\n        uint256 totalCollateral = _initialCollateralAmount;\r\n        // Highly leveraged shorts breaks a lot of things, so I've limited it for now\r\n        uint borrowAmount = (nextBorrow * _borrowFactor) / 100;\r\n        borrow(_asset, borrowAmount);\r\n        totalBorrow += borrowAmount;\r\n        // (address _tokenIn, address _tokenOut, uint _amountIn, uint _amountOutMin, address _to\r\n        IERC20(_asset).approve(_swapper, borrowAmount);\r\n        uint256 tokensBought = swapImplementation(_swapper).swap(_asset,DAI,borrowAmount, 1, address(this));\r\n        IERC20(DAI).approve(address(aaveLender), tokensBought);\r\n        deposit(DAI, tokensBought);\r\n        totalCollateral += tokensBought;\r\n    \r\n        return (totalBorrow, totalCollateral);\r\n        \r\n    }\r\n    \r\n    function closePosition(address _debtAsset, address _asset, address _swapper, uint256 _debtOwed, uint256 _totalCollateral) public {\r\n        IERC20(_debtAsset).transferFrom(msg.sender, address(this), _debtOwed);\r\n        IERC20(_debtAsset).approve(address(aaveLender), _debtOwed);\r\n        repay(_debtAsset, _debtOwed);\r\n        // Now with no debt, withdraw collateral\r\n        uint256 amountWithdrawn = withdraw(_asset, _totalCollateral);\r\n        IERC20(_asset).transfer(msg.sender, _totalCollateral);\r\n    }\r\n\r\n    /*\r\n        Internal Wrapper functions for dealing with Aave directly\r\n    */\r\n    function deposit(\r\n        address _asset, \r\n        uint256 _amount\r\n    ) internal {\r\n        //aaveLender.setUserUseReserveAsCollateral(_asset, true);\r\n        aaveLender.deposit(_asset, _amount, address(this), 0);\r\n    }\r\n\r\n    function withdraw(\r\n        address _asset,\r\n        uint256 _amount\r\n    ) internal returns (uint256){\r\n        uint256 amountReturned = aaveLender.withdraw(_asset, _amount, address(this));\r\n    }\r\n\r\n    function borrow(\r\n        address _asset,\r\n        uint256 _amount\r\n    ) internal {\r\n        aaveLender.borrow(_asset, _amount, 2, 0, address(this));\r\n    }\r\n\r\n    function repay(\r\n        address _asset,\r\n        uint256 _amount\r\n    ) internal returns (uint256){\r\n        uint256 amountRepayed = aaveLender.repay(_asset, _amount, 2, address(this));\r\n        return amountRepayed;\r\n    }\r\n}",
  "sourcePath": "B:\\Nebula Labs\\PhantasmV1-Contracts\\contracts\\Aave.sol",
  "compiler": {
    "name": "solc",
    "version": "0.8.10+commit.fc410830.Emscripten.clang"
  },
  "schemaVersion": "3.4.2",
  "updatedAt": "2022-01-16T18:27:53.000Z",
  "devdoc": {
    "kind": "dev",
    "methods": {},
    "version": 1
  },
  "userdoc": {
    "kind": "user",
    "methods": {},
    "version": 1
  }
}