{
  "contractName": "EEIntegration",
  "abi": [
    {
      "inputs": [
        {
          "internalType": "address",
          "name": "_phantasmManager",
          "type": "address"
        }
      ],
      "stateMutability": "nonpayable",
      "type": "constructor"
    },
    {
      "inputs": [],
      "name": "WETH",
      "outputs": [
        {
          "internalType": "contract IERC20",
          "name": "",
          "type": "address"
        }
      ],
      "stateMutability": "view",
      "type": "function"
    },
    {
      "inputs": [],
      "name": "dai",
      "outputs": [
        {
          "internalType": "contract IERC20",
          "name": "",
          "type": "address"
        }
      ],
      "stateMutability": "view",
      "type": "function"
    },
    {
      "inputs": [],
      "name": "daiViaAavePool",
      "outputs": [
        {
          "internalType": "contract DInterest",
          "name": "",
          "type": "address"
        }
      ],
      "stateMutability": "view",
      "type": "function"
    },
    {
      "inputs": [],
      "name": "daiViaCompoundPool",
      "outputs": [
        {
          "internalType": "contract DInterest",
          "name": "",
          "type": "address"
        }
      ],
      "stateMutability": "view",
      "type": "function"
    },
    {
      "inputs": [
        {
          "internalType": "address",
          "name": "",
          "type": "address"
        },
        {
          "internalType": "address",
          "name": "",
          "type": "address"
        },
        {
          "internalType": "uint256",
          "name": "",
          "type": "uint256"
        }
      ],
      "name": "myFundingIDs",
      "outputs": [
        {
          "internalType": "uint64",
          "name": "",
          "type": "uint64"
        }
      ],
      "stateMutability": "view",
      "type": "function"
    },
    {
      "inputs": [
        {
          "internalType": "address",
          "name": "",
          "type": "address"
        },
        {
          "internalType": "address",
          "name": "",
          "type": "address"
        },
        {
          "internalType": "uint256[]",
          "name": "",
          "type": "uint256[]"
        },
        {
          "internalType": "uint256[]",
          "name": "",
          "type": "uint256[]"
        },
        {
          "internalType": "bytes",
          "name": "",
          "type": "bytes"
        }
      ],
      "name": "onERC1155BatchReceived",
      "outputs": [
        {
          "internalType": "bytes4",
          "name": "",
          "type": "bytes4"
        }
      ],
      "stateMutability": "nonpayable",
      "type": "function"
    },
    {
      "inputs": [
        {
          "internalType": "address",
          "name": "",
          "type": "address"
        },
        {
          "internalType": "address",
          "name": "",
          "type": "address"
        },
        {
          "internalType": "uint256",
          "name": "",
          "type": "uint256"
        },
        {
          "internalType": "uint256",
          "name": "",
          "type": "uint256"
        },
        {
          "internalType": "bytes",
          "name": "",
          "type": "bytes"
        }
      ],
      "name": "onERC1155Received",
      "outputs": [
        {
          "internalType": "bytes4",
          "name": "",
          "type": "bytes4"
        }
      ],
      "stateMutability": "nonpayable",
      "type": "function"
    },
    {
      "inputs": [
        {
          "internalType": "bytes4",
          "name": "interfaceId",
          "type": "bytes4"
        }
      ],
      "name": "supportsInterface",
      "outputs": [
        {
          "internalType": "bool",
          "name": "",
          "type": "bool"
        }
      ],
      "stateMutability": "view",
      "type": "function"
    },
    {
      "inputs": [
        {
          "internalType": "address",
          "name": "_token",
          "type": "address"
        },
        {
          "internalType": "uint256",
          "name": "_amount",
          "type": "uint256"
        }
      ],
      "name": "findAndBuyYieldTokens",
      "outputs": [
        {
          "internalType": "uint256",
          "name": "_amountSpent",
          "type": "uint256"
        }
      ],
      "stateMutability": "nonpayable",
      "type": "function"
    },
    {
      "inputs": [
        {
          "internalType": "address",
          "name": "_token",
          "type": "address"
        }
      ],
      "name": "collectAllInterest",
      "outputs": [
        {
          "internalType": "uint256",
          "name": "_amountCollected",
          "type": "uint256"
        }
      ],
      "stateMutability": "nonpayable",
      "type": "function"
    },
    {
      "inputs": [
        {
          "internalType": "address",
          "name": "_token",
          "type": "address"
        }
      ],
      "name": "getUserInsuredAmount",
      "outputs": [
        {
          "internalType": "uint256",
          "name": "_totalAmountInsured",
          "type": "uint256"
        }
      ],
      "stateMutability": "view",
      "type": "function"
    },
    {
      "inputs": [
        {
          "internalType": "address",
          "name": "_token",
          "type": "address"
        },
        {
          "internalType": "uint256",
          "name": "_amountIn",
          "type": "uint256"
        }
      ],
      "name": "getTotalYTInBudget",
      "outputs": [
        {
          "internalType": "uint256",
          "name": "_insuranceAvailable",
          "type": "uint256"
        }
      ],
      "stateMutability": "view",
      "type": "function"
    },
    {
      "inputs": [
        {
          "internalType": "address",
          "name": "_assetPool",
          "type": "address"
        },
        {
          "internalType": "uint256",
          "name": "_stableInAmount",
          "type": "uint256"
        },
        {
          "internalType": "uint64",
          "name": "_maturationTimestamp",
          "type": "uint64"
        }
      ],
      "name": "makeDeposit",
      "outputs": [
        {
          "internalType": "uint64",
          "name": "depositID",
          "type": "uint64"
        },
        {
          "internalType": "uint256",
          "name": "interestAmount",
          "type": "uint256"
        }
      ],
      "stateMutability": "nonpayable",
      "type": "function"
    },
    {
      "inputs": [
        {
          "internalType": "address",
          "name": "_assetPool",
          "type": "address"
        },
        {
          "internalType": "uint64",
          "name": "_depositId",
          "type": "uint64"
        },
        {
          "internalType": "uint256",
          "name": "_stableInAmount",
          "type": "uint256"
        }
      ],
      "name": "buyYieldTokens",
      "outputs": [
        {
          "internalType": "uint64",
          "name": "_fundingID",
          "type": "uint64"
        },
        {
          "internalType": "uint256",
          "name": "fundingMultitokensMinted",
          "type": "uint256"
        },
        {
          "internalType": "uint256",
          "name": "actualFundAmount",
          "type": "uint256"
        },
        {
          "internalType": "uint256",
          "name": "principalFunded",
          "type": "uint256"
        }
      ],
      "stateMutability": "nonpayable",
      "type": "function"
    },
    {
      "inputs": [
        {
          "internalType": "address",
          "name": "_assetPool",
          "type": "address"
        },
        {
          "internalType": "uint64",
          "name": "_fundingID",
          "type": "uint64"
        }
      ],
      "name": "collectInterest",
      "outputs": [
        {
          "internalType": "uint256",
          "name": "",
          "type": "uint256"
        }
      ],
      "stateMutability": "nonpayable",
      "type": "function"
    },
    {
      "inputs": [
        {
          "internalType": "address",
          "name": "_assetPool",
          "type": "address"
        },
        {
          "internalType": "uint64",
          "name": "_fundingID",
          "type": "uint64"
        }
      ],
      "name": "getInsuredAmount",
      "outputs": [
        {
          "internalType": "uint256",
          "name": "",
          "type": "uint256"
        }
      ],
      "stateMutability": "view",
      "type": "function"
    },
    {
      "inputs": [
        {
          "internalType": "address",
          "name": "_assetPool",
          "type": "address"
        },
        {
          "internalType": "uint64",
          "name": "_depositID",
          "type": "uint64"
        }
      ],
      "name": "getYTPriceFromDeposit",
      "outputs": [
        {
          "internalType": "uint256",
          "name": "",
          "type": "uint256"
        }
      ],
      "stateMutability": "view",
      "type": "function"
    }
  ],
  "bytecode": "0x608060405273c02aaa39b223fe8d0a0e5c4f27ead9083c756cc26000806101000a81548173ffffffffffffffffffffffffffffffffffffffff021916908373ffffffffffffffffffffffffffffffffffffffff160217905550736b175474e89094c44da98b954eedeac495271d0f600160006101000a81548173ffffffffffffffffffffffffffffffffffffffff021916908373ffffffffffffffffffffffffffffffffffffffff160217905550736d97ea6e14d35e10b50df9475e9efaad1982065e600260006101000a81548173ffffffffffffffffffffffffffffffffffffffff021916908373ffffffffffffffffffffffffffffffffffffffff1602179055507311b1c87983f881b3686f8b1171628357faa30038600360006101000a81548173ffffffffffffffffffffffffffffffffffffffff021916908373ffffffffffffffffffffffffffffffffffffffff1602179055503480156200016457600080fd5b5060405162002e1338038062002e1383398181016040528101906200018a91906200023c565b80600460006101000a81548173ffffffffffffffffffffffffffffffffffffffff021916908373ffffffffffffffffffffffffffffffffffffffff160217905550506200026e565b600080fd5b600073ffffffffffffffffffffffffffffffffffffffff82169050919050565b60006200020482620001d7565b9050919050565b6200021681620001f7565b81146200022257600080fd5b50565b60008151905062000236816200020b565b92915050565b600060208284031215620002555762000254620001d2565b5b6000620002658482850162000225565b91505092915050565b612b95806200027e6000396000f3fe608060405234801561001057600080fd5b506004361061010b5760003560e01c8063a268c2f2116100a2578063b3e7f56511610071578063b3e7f5651461031e578063bc197c811461034e578063d78fd6021461037e578063f23a6e61146103ae578063f4b9fa75146103de5761010b565b8063a268c2f214610282578063a450bffe146102a0578063ad5c4648146102d0578063b04f1885146102ee5761010b565b806370bbba1d116100de57806370bbba1d146101d157806381a96daa14610201578063844b8b9a146102315780639de71e93146102645761010b565b806301ffc9a714610110578063262c13a014610140578063342579fe146101705780635e6be7b2146101a1575b600080fd5b61012a60048036038101906101259190611da4565b6103fc565b6040516101379190611dec565b60405180910390f35b61015a60048036038101906101559190611e65565b610476565b6040516101679190611eab565b60405180910390f35b61018a60048036038101906101859190611f32565b61089e565b604051610198929190611f94565b60405180910390f35b6101bb60048036038101906101b69190611fbd565b6109cb565b6040516101c89190612010565b60405180910390f35b6101eb60048036038101906101e6919061202b565b610a25565b6040516101f89190611eab565b60405180910390f35b61021b60048036038101906102169190611e65565b610f50565b6040516102289190611eab565b60405180910390f35b61024b6004803603810190610246919061206b565b611419565b60405161025b94939291906120be565b60405180910390f35b61026c61154f565b6040516102799190612162565b60405180910390f35b61028a611575565b6040516102979190612162565b60405180910390f35b6102ba60048036038101906102b5919061217d565b61159b565b6040516102c79190611eab565b60405180910390f35b6102d8611748565b6040516102e591906121de565b60405180910390f35b6103086004803603810190610303919061217d565b61176c565b6040516103159190611eab565b60405180910390f35b6103386004803603810190610333919061202b565b6117f7565b6040516103459190611eab565b60405180910390f35b61036860048036038101906103639190612407565b611bf6565b60405161037591906124e5565b60405180910390f35b6103986004803603810190610393919061217d565b611c0b565b6040516103a59190611eab565b60405180910390f35b6103c860048036038101906103c39190612500565b611c93565b6040516103d591906124e5565b60405180910390f35b6103e6611ca8565b6040516103f391906121de565b60405180910390f35b60007f4e2312e0000000000000000000000000000000000000000000000000000000007bffffffffffffffffffffffffffffffffffffffffffffffffffffffff1916827bffffffffffffffffffffffffffffffffffffffffffffffffffffffff1916148061046f575061046e82611cce565b5b9050919050565b60008060009050600160009054906101000a900473ffffffffffffffffffffffffffffffffffffffff1673ffffffffffffffffffffffffffffffffffffffff168373ffffffffffffffffffffffffffffffffffffffff161415610895576060600267ffffffffffffffff8111156104f0576104ef61220f565b5b60405190808252806020026020018201604052801561051e5781602001602082028036833780820191505090505b509050600260009054906101000a900473ffffffffffffffffffffffffffffffffffffffff168160008151811061055857610557612597565b5b602002602001019073ffffffffffffffffffffffffffffffffffffffff16908173ffffffffffffffffffffffffffffffffffffffff1681525050600360009054906101000a900473ffffffffffffffffffffffffffffffffffffffff16816001815181106105c9576105c8612597565b5b602002602001019073ffffffffffffffffffffffffffffffffffffffff16908173ffffffffffffffffffffffffffffffffffffffff168152505060005b81518110156108925760006005600084848151811061062857610627612597565b5b602002602001015173ffffffffffffffffffffffffffffffffffffffff1673ffffffffffffffffffffffffffffffffffffffff16815260200190815260200160002060003373ffffffffffffffffffffffffffffffffffffffff1673ffffffffffffffffffffffffffffffffffffffff168152602001908152602001600020805490501461087f5760005b600560008484815181106106ca576106c9612597565b5b602002602001015173ffffffffffffffffffffffffffffffffffffffff1673ffffffffffffffffffffffffffffffffffffffff16815260200190815260200160002060003373ffffffffffffffffffffffffffffffffffffffff1673ffffffffffffffffffffffffffffffffffffffff168152602001908152602001600020805490508167ffffffffffffffff16101561087d5761085d83838151811061077457610773612597565b5b60200260200101516005600086868151811061079357610792612597565b5b602002602001015173ffffffffffffffffffffffffffffffffffffffff1673ffffffffffffffffffffffffffffffffffffffff16815260200190815260200160002060003373ffffffffffffffffffffffffffffffffffffffff1673ffffffffffffffffffffffffffffffffffffffff1681526020019081526020016000208367ffffffffffffffff168154811061082e5761082d612597565b5b90600052602060002090600491828204019190066008029054906101000a900467ffffffffffffffff16611c0b565b8461086891906125f5565b935080806108759061264b565b9150506106b3565b505b808061088a9061267c565b915050610606565b50505b80915050919050565b600080600160009054906101000a900473ffffffffffffffffffffffffffffffffffffffff1673ffffffffffffffffffffffffffffffffffffffff1663095ea7b386866040518363ffffffff1660e01b81526004016108fe9291906126d4565b6020604051808303816000875af115801561091d573d6000803e3d6000fd5b505050506040513d601f19601f820116820180604052508101906109419190612729565b508473ffffffffffffffffffffffffffffffffffffffff16637d552ea685856040518363ffffffff1660e01b815260040161097d929190612756565b60408051808303816000875af115801561099b573d6000803e3d6000fd5b505050506040513d601f19601f820116820180604052508101906109bf91906127a9565b91509150935093915050565b600560205282600052604060002060205281600052604060002081815481106109f357600080fd5b906000526020600020906004918282040191900660080292509250509054906101000a900467ffffffffffffffff1681565b600080829050600160009054906101000a900473ffffffffffffffffffffffffffffffffffffffff1673ffffffffffffffffffffffffffffffffffffffff168473ffffffffffffffffffffffffffffffffffffffff161415610ef7576060600267ffffffffffffffff811115610a9e57610a9d61220f565b5b604051908082528060200260200182016040528015610acc5781602001602082028036833780820191505090505b509050600260009054906101000a900473ffffffffffffffffffffffffffffffffffffffff1681600081518110610b0657610b05612597565b5b602002602001019073ffffffffffffffffffffffffffffffffffffffff16908173ffffffffffffffffffffffffffffffffffffffff1681525050600360009054906101000a900473ffffffffffffffffffffffffffffffffffffffff1681600181518110610b7757610b76612597565b5b602002602001019073ffffffffffffffffffffffffffffffffffffffff16908173ffffffffffffffffffffffffffffffffffffffff168152505060005b8151811015610ef4576000828281518110610bd257610bd1612597565b5b602002602001015173ffffffffffffffffffffffffffffffffffffffff1663f154240a6040518163ffffffff1660e01b8152600401602060405180830381865afa158015610c24573d6000803e3d6000fd5b505050506040513d601f19601f82011682018060405250810190610c4891906127e9565b14610ee1576000600190505b828281518110610c6757610c66612597565b5b602002602001015173ffffffffffffffffffffffffffffffffffffffff1663f154240a6040518163ffffffff1660e01b8152600401602060405180830381865afa158015610cb9573d6000803e3d6000fd5b505050506040513d601f19601f82011682018060405250810190610cdd91906127e9565b8167ffffffffffffffff1611610edf576000838381518110610d0257610d01612597565b5b602002602001015173ffffffffffffffffffffffffffffffffffffffff1663ae59a6b2836040518263ffffffff1660e01b8152600401610d429190612010565b60c060405180830381865afa158015610d5f573d6000803e3d6000fd5b505050506040513d601f19601f82011682018060405250810190610d8391906128bb565b60a0015167ffffffffffffffff16148015610d9e5750600084115b15610ecc57600080610dcb858581518110610dbc57610dbb612597565b5b60200260200101518488611419565b5092505091508086610ddd91906128e8565b955060056000868681518110610df657610df5612597565b5b602002602001015173ffffffffffffffffffffffffffffffffffffffff1673ffffffffffffffffffffffffffffffffffffffff16815260200190815260200160002060003373ffffffffffffffffffffffffffffffffffffffff1673ffffffffffffffffffffffffffffffffffffffff1681526020019081526020016000208290806001815401808255809150506001900390600052602060002090600491828204019190066008029091909190916101000a81548167ffffffffffffffff021916908367ffffffffffffffff16021790555050505b8080610ed79061264b565b915050610c54565b505b8080610eec9061267c565b915050610bb4565b50505b6000811015610f3b576040517f08c379a0000000000000000000000000000000000000000000000000000000008152600401610f3290612979565b60405180910390fd5b8083610f4791906128e8565b91505092915050565b60008060009050600160009054906101000a900473ffffffffffffffffffffffffffffffffffffffff1673ffffffffffffffffffffffffffffffffffffffff168373ffffffffffffffffffffffffffffffffffffffff16141561136f576060600267ffffffffffffffff811115610fca57610fc961220f565b5b604051908082528060200260200182016040528015610ff85781602001602082028036833780820191505090505b509050600260009054906101000a900473ffffffffffffffffffffffffffffffffffffffff168160008151811061103257611031612597565b5b602002602001019073ffffffffffffffffffffffffffffffffffffffff16908173ffffffffffffffffffffffffffffffffffffffff1681525050600360009054906101000a900473ffffffffffffffffffffffffffffffffffffffff16816001815181106110a3576110a2612597565b5b602002602001019073ffffffffffffffffffffffffffffffffffffffff16908173ffffffffffffffffffffffffffffffffffffffff168152505060005b815181101561136c5760006005600084848151811061110257611101612597565b5b602002602001015173ffffffffffffffffffffffffffffffffffffffff1673ffffffffffffffffffffffffffffffffffffffff16815260200190815260200160002060003373ffffffffffffffffffffffffffffffffffffffff1673ffffffffffffffffffffffffffffffffffffffff16815260200190815260200160002080549050146113595760005b600560008484815181106111a4576111a3612597565b5b602002602001015173ffffffffffffffffffffffffffffffffffffffff1673ffffffffffffffffffffffffffffffffffffffff16815260200190815260200160002060003373ffffffffffffffffffffffffffffffffffffffff1673ffffffffffffffffffffffffffffffffffffffff168152602001908152602001600020805490508167ffffffffffffffff1610156113575761133783838151811061124e5761124d612597565b5b60200260200101516005600086868151811061126d5761126c612597565b5b602002602001015173ffffffffffffffffffffffffffffffffffffffff1673ffffffffffffffffffffffffffffffffffffffff16815260200190815260200160002060003373ffffffffffffffffffffffffffffffffffffffff1673ffffffffffffffffffffffffffffffffffffffff1681526020019081526020016000208367ffffffffffffffff168154811061130857611307612597565b5b90600052602060002090600491828204019190066008029054906101000a900467ffffffffffffffff1661176c565b8461134291906125f5565b9350808061134f9061264b565b91505061118d565b505b80806113649061267c565b9150506110e0565b50505b8273ffffffffffffffffffffffffffffffffffffffff1663a9059cbb600460009054906101000a900473ffffffffffffffffffffffffffffffffffffffff16836040518363ffffffff1660e01b81526004016113cc9291906126d4565b6020604051808303816000875af11580156113eb573d6000803e3d6000fd5b505050506040513d601f19601f8201168201806040525081019061140f9190612729565b5080915050919050565b600080600080600160009054906101000a900473ffffffffffffffffffffffffffffffffffffffff1673ffffffffffffffffffffffffffffffffffffffff1663095ea7b388876040518363ffffffff1660e01b815260040161147c9291906126d4565b6020604051808303816000875af115801561149b573d6000803e3d6000fd5b505050506040513d601f19601f820116820180604052508101906114bf9190612729565b508673ffffffffffffffffffffffffffffffffffffffff16635c53ba2687876040518363ffffffff1660e01b81526004016114fb929190611f94565b6080604051808303816000875af115801561151a573d6000803e3d6000fd5b505050506040513d601f19601f8201168201806040525081019061153e9190612999565b935093509350935093509350935093565b600260009054906101000a900473ffffffffffffffffffffffffffffffffffffffff1681565b600360009054906101000a900473ffffffffffffffffffffffffffffffffffffffff1681565b60008273ffffffffffffffffffffffffffffffffffffffff1663ae59a6b2836040518263ffffffff1660e01b81526004016115d69190612010565b60c060405180830381865afa1580156115f3573d6000803e3d6000fd5b505050506040513d601f19601f8201168201806040525081019061161791906128bb565b60000151428473ffffffffffffffffffffffffffffffffffffffff1663ae59a6b2856040518263ffffffff1660e01b81526004016116559190612010565b60c060405180830381865afa158015611672573d6000803e3d6000fd5b505050506040513d601f19601f8201168201806040525081019061169691906128bb565b6080015167ffffffffffffffff168573ffffffffffffffffffffffffffffffffffffffff1663ae59a6b2866040518263ffffffff1660e01b81526004016116dd9190612010565b60c060405180830381865afa1580156116fa573d6000803e3d6000fd5b505050506040513d601f19601f8201168201806040525081019061171e91906128bb565b6020015161172c9190612a2f565b61173691906128e8565b6117409190612a60565b905092915050565b60008054906101000a900473ffffffffffffffffffffffffffffffffffffffff1681565b6000808373ffffffffffffffffffffffffffffffffffffffff16639530d77e846040518263ffffffff1660e01b81526004016117a89190612010565b6020604051808303816000875af11580156117c7573d6000803e3d6000fd5b505050506040513d601f19601f820116820180604052508101906117eb91906127e9565b90508091505092915050565b600080600090506000839050600160009054906101000a900473ffffffffffffffffffffffffffffffffffffffff1673ffffffffffffffffffffffffffffffffffffffff168573ffffffffffffffffffffffffffffffffffffffff161415611beb576060600267ffffffffffffffff8111156118765761187561220f565b5b6040519080825280602002602001820160405280156118a45781602001602082028036833780820191505090505b509050600260009054906101000a900473ffffffffffffffffffffffffffffffffffffffff16816000815181106118de576118dd612597565b5b602002602001019073ffffffffffffffffffffffffffffffffffffffff16908173ffffffffffffffffffffffffffffffffffffffff1681525050600360009054906101000a900473ffffffffffffffffffffffffffffffffffffffff168160018151811061194f5761194e612597565b5b602002602001019073ffffffffffffffffffffffffffffffffffffffff16908173ffffffffffffffffffffffffffffffffffffffff168152505060005b8151811015611be85760008282815181106119aa576119a9612597565b5b602002602001015173ffffffffffffffffffffffffffffffffffffffff1663f154240a6040518163ffffffff1660e01b8152600401602060405180830381865afa1580156119fc573d6000803e3d6000fd5b505050506040513d601f19601f82011682018060405250810190611a2091906127e9565b14611bd5576000600190505b828281518110611a3f57611a3e612597565b5b602002602001015173ffffffffffffffffffffffffffffffffffffffff1663f154240a6040518163ffffffff1660e01b8152600401602060405180830381865afa158015611a91573d6000803e3d6000fd5b505050506040513d601f19601f82011682018060405250810190611ab591906127e9565b8167ffffffffffffffff1611611bd3576000611aeb848481518110611add57611adc612597565b5b60200260200101518361159b565b90508085118015611b9d57506000848481518110611b0c57611b0b612597565b5b602002602001015173ffffffffffffffffffffffffffffffffffffffff1663ae59a6b2846040518263ffffffff1660e01b8152600401611b4c9190612010565b60c060405180830381865afa158015611b69573d6000803e3d6000fd5b505050506040513d601f19601f82011682018060405250810190611b8d91906128bb565b60a0015167ffffffffffffffff16145b15611bbf578085611bae91906128e8565b94508086611bbc91906125f5565b95505b508080611bcb9061264b565b915050611a2c565b505b8080611be09061267c565b91505061198c565b50505b819250505092915050565b600063bc197c8160e01b905095945050505050565b60008273ffffffffffffffffffffffffffffffffffffffff166386b8f9f1836040518263ffffffff1660e01b8152600401611c469190612010565b608060405180830381865afa158015611c63573d6000803e3d6000fd5b505050506040513d601f19601f82011682018060405250810190611c879190612b32565b60600151905092915050565b600063f23a6e6160e01b905095945050505050565b600160009054906101000a900473ffffffffffffffffffffffffffffffffffffffff1681565b60007f01ffc9a7000000000000000000000000000000000000000000000000000000007bffffffffffffffffffffffffffffffffffffffffffffffffffffffff1916827bffffffffffffffffffffffffffffffffffffffffffffffffffffffff1916149050919050565b6000604051905090565b600080fd5b600080fd5b60007fffffffff0000000000000000000000000000000000000000000000000000000082169050919050565b611d8181611d4c565b8114611d8c57600080fd5b50565b600081359050611d9e81611d78565b92915050565b600060208284031215611dba57611db9611d42565b5b6000611dc884828501611d8f565b91505092915050565b60008115159050919050565b611de681611dd1565b82525050565b6000602082019050611e016000830184611ddd565b92915050565b600073ffffffffffffffffffffffffffffffffffffffff82169050919050565b6000611e3282611e07565b9050919050565b611e4281611e27565b8114611e4d57600080fd5b50565b600081359050611e5f81611e39565b92915050565b600060208284031215611e7b57611e7a611d42565b5b6000611e8984828501611e50565b91505092915050565b6000819050919050565b611ea581611e92565b82525050565b6000602082019050611ec06000830184611e9c565b92915050565b611ecf81611e92565b8114611eda57600080fd5b50565b600081359050611eec81611ec6565b92915050565b600067ffffffffffffffff82169050919050565b611f0f81611ef2565b8114611f1a57600080fd5b50565b600081359050611f2c81611f06565b92915050565b600080600060608486031215611f4b57611f4a611d42565b5b6000611f5986828701611e50565b9350506020611f6a86828701611edd565b9250506040611f7b86828701611f1d565b9150509250925092565b611f8e81611ef2565b82525050565b6000604082019050611fa96000830185611f85565b611fb66020830184611e9c565b9392505050565b600080600060608486031215611fd657611fd5611d42565b5b6000611fe486828701611e50565b9350506020611ff586828701611e50565b925050604061200686828701611edd565b9150509250925092565b60006020820190506120256000830184611f85565b92915050565b6000806040838503121561204257612041611d42565b5b600061205085828601611e50565b925050602061206185828601611edd565b9150509250929050565b60008060006060848603121561208457612083611d42565b5b600061209286828701611e50565b93505060206120a386828701611f1d565b92505060406120b486828701611edd565b9150509250925092565b60006080820190506120d36000830187611f85565b6120e06020830186611e9c565b6120ed6040830185611e9c565b6120fa6060830184611e9c565b95945050505050565b6000819050919050565b600061212861212361211e84611e07565b612103565b611e07565b9050919050565b600061213a8261210d565b9050919050565b600061214c8261212f565b9050919050565b61215c81612141565b82525050565b60006020820190506121776000830184612153565b92915050565b6000806040838503121561219457612193611d42565b5b60006121a285828601611e50565b92505060206121b385828601611f1d565b9150509250929050565b60006121c88261212f565b9050919050565b6121d8816121bd565b82525050565b60006020820190506121f360008301846121cf565b92915050565b600080fd5b6000601f19601f8301169050919050565b7f4e487b7100000000000000000000000000000000000000000000000000000000600052604160045260246000fd5b612247826121fe565b810181811067ffffffffffffffff821117156122665761226561220f565b5b80604052505050565b6000612279611d38565b9050612285828261223e565b919050565b600067ffffffffffffffff8211156122a5576122a461220f565b5b602082029050602081019050919050565b600080fd5b60006122ce6122c98461228a565b61226f565b905080838252602082019050602084028301858111156122f1576122f06122b6565b5b835b8181101561231a57806123068882611edd565b8452602084019350506020810190506122f3565b5050509392505050565b600082601f830112612339576123386121f9565b5b81356123498482602086016122bb565b91505092915050565b600080fd5b600067ffffffffffffffff8211156123725761237161220f565b5b61237b826121fe565b9050602081019050919050565b82818337600083830152505050565b60006123aa6123a584612357565b61226f565b9050828152602081018484840111156123c6576123c5612352565b5b6123d1848285612388565b509392505050565b600082601f8301126123ee576123ed6121f9565b5b81356123fe848260208601612397565b91505092915050565b600080600080600060a0868803121561242357612422611d42565b5b600061243188828901611e50565b955050602061244288828901611e50565b945050604086013567ffffffffffffffff81111561246357612462611d47565b5b61246f88828901612324565b935050606086013567ffffffffffffffff8111156124905761248f611d47565b5b61249c88828901612324565b925050608086013567ffffffffffffffff8111156124bd576124bc611d47565b5b6124c9888289016123d9565b9150509295509295909350565b6124df81611d4c565b82525050565b60006020820190506124fa60008301846124d6565b92915050565b600080600080600060a0868803121561251c5761251b611d42565b5b600061252a88828901611e50565b955050602061253b88828901611e50565b945050604061254c88828901611edd565b935050606061255d88828901611edd565b925050608086013567ffffffffffffffff81111561257e5761257d611d47565b5b61258a888289016123d9565b9150509295509295909350565b7f4e487b7100000000000000000000000000000000000000000000000000000000600052603260045260246000fd5b7f4e487b7100000000000000000000000000000000000000000000000000000000600052601160045260246000fd5b600061260082611e92565b915061260b83611e92565b9250827fffffffffffffffffffffffffffffffffffffffffffffffffffffffffffffffff038211156126405761263f6125c6565b5b828201905092915050565b600061265682611ef2565b915067ffffffffffffffff821415612671576126706125c6565b5b600182019050919050565b600061268782611e92565b91507fffffffffffffffffffffffffffffffffffffffffffffffffffffffffffffffff8214156126ba576126b96125c6565b5b600182019050919050565b6126ce81611e27565b82525050565b60006040820190506126e960008301856126c5565b6126f66020830184611e9c565b9392505050565b61270681611dd1565b811461271157600080fd5b50565b600081519050612723816126fd565b92915050565b60006020828403121561273f5761273e611d42565b5b600061274d84828501612714565b91505092915050565b600060408201905061276b6000830185611e9c565b6127786020830184611f85565b9392505050565b60008151905061278e81611f06565b92915050565b6000815190506127a381611ec6565b92915050565b600080604083850312156127c0576127bf611d42565b5b60006127ce8582860161277f565b92505060206127df85828601612794565b9150509250929050565b6000602082840312156127ff576127fe611d42565b5b600061280d84828501612794565b91505092915050565b600080fd5b600060c0828403121561283157612830612816565b5b61283b60c061226f565b9050600061284b84828501612794565b600083015250602061285f84828501612794565b602083015250604061287384828501612794565b604083015250606061288784828501612794565b606083015250608061289b8482850161277f565b60808301525060a06128af8482850161277f565b60a08301525092915050565b600060c082840312156128d1576128d0611d42565b5b60006128df8482850161281b565b91505092915050565b60006128f382611e92565b91506128fe83611e92565b925082821015612911576129106125c6565b5b828203905092915050565b600082825260208201905092915050565b7f5370656e74206d6f7265207468616e2074616b656e20696e0000000000000000600082015250565b600061296360188361291c565b915061296e8261292d565b602082019050919050565b6000602082019050818103600083015261299281612956565b9050919050565b600080600080608085870312156129b3576129b2611d42565b5b60006129c18782880161277f565b94505060206129d287828801612794565b93505060406129e387828801612794565b92505060606129f487828801612794565b91505092959194509250565b7f4e487b7100000000000000000000000000000000000000000000000000000000600052601260045260246000fd5b6000612a3a82611e92565b9150612a4583611e92565b925082612a5557612a54612a00565b5b828204905092915050565b6000612a6b82611e92565b9150612a7683611e92565b9250817fffffffffffffffffffffffffffffffffffffffffffffffffffffffffffffffff0483118215151615612aaf57612aae6125c6565b5b828202905092915050565b600060808284031215612ad057612acf612816565b5b612ada608061226f565b90506000612aea8482850161277f565b6000830152506020612afe8482850161277f565b6020830152506040612b1284828501612794565b6040830152506060612b2684828501612794565b60608301525092915050565b600060808284031215612b4857612b47611d42565b5b6000612b5684828501612aba565b9150509291505056fea2646970667358221220bfbe5c63ff2bb9f3a1483db0449d762f7f6e18eb520f13ffd2700b3b51f06e4a64736f6c634300080a0033",
  "immutableReferences": {},
  "source": "// SPDX-License-Identifier: MIT\r\npragma solidity ^0.8;\r\n\r\n\r\nimport './interfaces/IERC20.sol';\r\nimport './interfaces/IDInterest.sol';\r\nimport \"@openzeppelin/contracts/token/ERC1155/utils/ERC1155Holder.sol\";\r\ncontract EEIntegration is ERC1155Holder {\r\n\r\n    IERC20 public WETH = IERC20(0xC02aaA39b223FE8D0A0e5C4F27eAD9083C756Cc2);\r\n    IERC20 public dai = IERC20(0x6B175474E89094C44Da98b954EedeAC495271d0F);\r\n    DInterest public daiViaAavePool = DInterest(0x6D97eA6e14D35e10b50df9475e9EFaAd1982065E);\r\n    DInterest public daiViaCompoundPool = DInterest(0x11B1c87983F881B3686F8b1171628357FAA30038);\r\n    address PhantasmManager;\r\n\r\n    mapping (address => mapping (address => uint64[])) public myFundingIDs; // Pool Address => User Address => Funding Id\r\n\r\n    constructor(address _phantasmManager) {\r\n        PhantasmManager = _phantasmManager; \r\n    }\r\n    function findAndBuyYieldTokens(address _token, uint256 _amount) public returns (uint256 _amountSpent) {\r\n        uint256 amountLeft = _amount;\r\n        if (_token == address(dai)) {\r\n            DInterest[] memory daiPools;\r\n            daiPools = new DInterest[](2);\r\n            daiPools[0] = daiViaAavePool;\r\n            daiPools[1] = daiViaCompoundPool;\r\n\r\n            for (uint256 i = 0; i < daiPools.length; i++) {\r\n                if (daiPools[i].depositsLength() != 0) {\r\n                    for (uint64 j = 1; j <= daiPools[i].depositsLength(); j++) {\r\n                        if (daiPools[i].getDeposit(j).fundingID == 0 && amountLeft > 0) {\r\n                            (uint64 fundingID, , uint256 actualFundAmount, ) = buyYieldTokens(address(daiPools[i]), j, amountLeft);\r\n                            amountLeft = amountLeft - actualFundAmount;\r\n                            myFundingIDs[address(daiPools[i])][msg.sender].push(fundingID);\r\n                        }\r\n                    }\r\n                }\r\n            }\r\n        }\r\n        require(amountLeft >= 0, \"Spent more than taken in\");\r\n        return _amount - amountLeft;\r\n    }\r\n\r\n    function collectAllInterest(address _token) public returns (uint256 _amountCollected) {\r\n        uint256 amountCollected = 0;\r\n        if (_token == address(dai)) {\r\n            DInterest[] memory daiPools;\r\n            daiPools = new DInterest[](2);\r\n            daiPools[0] = daiViaAavePool;\r\n            daiPools[1] = daiViaCompoundPool;\r\n            \r\n            for (uint256 i = 0; i < daiPools.length; i++) {\r\n                if (myFundingIDs[address(daiPools[i])][msg.sender].length != 0) {\r\n                    for (uint64 j = 0; j < myFundingIDs[address(daiPools[i])][msg.sender].length; j++) {\r\n                        amountCollected = amountCollected + collectInterest(address(daiPools[i]), myFundingIDs[address(daiPools[i])][msg.sender][j]);\r\n                    }\r\n                }\r\n            }\r\n        }\r\n        // Works because _token is DAI, but IIRC interest is accured in the actual asset, not DAI\r\n        IERC20(_token).transfer(PhantasmManager, amountCollected);\r\n        return amountCollected;\r\n    }\r\n\r\n    // Returns The Total Amount the User is Insured for (or earning yield on)\r\n    function getUserInsuredAmount (address _token) public view returns (uint256 _totalAmountInsured) {\r\n        uint256 insuredAmount = 0;\r\n        if (_token == address(dai)) {\r\n            DInterest[] memory daiPools;\r\n            daiPools = new DInterest[](2);\r\n            daiPools[0] = daiViaAavePool;\r\n            daiPools[1] = daiViaCompoundPool;\r\n\r\n            for (uint256 i = 0; i < daiPools.length; i++) {\r\n                if (myFundingIDs[address(daiPools[i])][msg.sender].length != 0) {\r\n                    for (uint64 j = 0; j < myFundingIDs[address(daiPools[i])][msg.sender].length; j++) {\r\n                        insuredAmount = insuredAmount + getInsuredAmount(address(daiPools[i]), myFundingIDs[address(daiPools[i])][msg.sender][j]);\r\n                    }\r\n                }\r\n            }\r\n        }\r\n        return insuredAmount;\r\n    }\r\n\r\n    // NEEDS TO BE REVISED => thisYTPrice should be the *Price* to buy the yield tokens => not the total amount of Yield Tokens\r\n    function getTotalYTInBudget (address _token, uint256 _amountIn) public view returns (uint256 _insuranceAvailable) {\r\n        uint256 insuranceAvailable = 0;\r\n        uint256 amountLeft = _amountIn;\r\n        if (_token == address(dai)) {\r\n            DInterest[] memory daiPools;\r\n            daiPools = new DInterest[](2);\r\n            daiPools[0] = daiViaAavePool;\r\n            daiPools[1] = daiViaCompoundPool;\r\n\r\n            for (uint256 i = 0; i < daiPools.length; i++) {\r\n                if (daiPools[i].depositsLength() != 0) {\r\n                    for (uint64 j = 1; j <= daiPools[i].depositsLength(); j++) {\r\n                        uint256 thisYTPrice = getYTPriceFromDeposit(address(daiPools[i]), j);\r\n                        if (amountLeft > thisYTPrice && daiPools[i].getDeposit(j).fundingID == 0) {\r\n                            amountLeft = amountLeft - thisYTPrice;\r\n                            insuranceAvailable = insuranceAvailable + thisYTPrice;\r\n                        }\r\n                    }\r\n                }\r\n            }\r\n        }\r\n        return insuranceAvailable;\r\n    }\r\n\r\n    /*\r\n       \r\n       \r\n      \r\n    */\r\n    \r\n    function makeDeposit (address _assetPool, uint256 _stableInAmount, uint64 _maturationTimestamp) public returns (uint64 depositID, uint256 interestAmount) {\r\n        dai.approve(_assetPool, _stableInAmount);\r\n        return DInterest(_assetPool).deposit(_stableInAmount, _maturationTimestamp);\r\n    }\r\n\r\n    function buyYieldTokens (address _assetPool, uint64 _depositId, uint256 _stableInAmount) public returns (uint64 _fundingID, uint256 fundingMultitokensMinted, uint256 actualFundAmount, uint256 principalFunded) {\r\n        dai.approve(_assetPool, _stableInAmount);\r\n        return DInterest(_assetPool).fund(_depositId, _stableInAmount);\r\n    }\r\n\r\n    // Collect Interest for a given fundingID\r\n    function collectInterest(address _assetPool, uint64 _fundingID) public returns (uint256){\r\n        uint256 interestCollected = DInterest(_assetPool).payInterestToFunders(_fundingID);\r\n        return interestCollected;\r\n    }\r\n\r\n    // Amount of stablecoins that's earning interest for you per funding token you own. Scaled to 18 decimals regardless of stablecoin decimals.\r\n    function getInsuredAmount (address _assetPool, uint64 _fundingID) public view returns (uint256) {\r\n        return DInterest(_assetPool).getFunding(_fundingID).principalPerToken;\r\n    }\r\n\r\n    function getYTPriceFromDeposit(address _assetPool, uint64 _depositID) public view returns (uint256) {\r\n        return (DInterest(_assetPool).getDeposit(_depositID).interestRate / DInterest(_assetPool).getDeposit(_depositID).maturationTimestamp - block.timestamp) * DInterest(_assetPool).getDeposit(_depositID).virtualTokenTotalSupply;\r\n    }\r\n}",
  "sourcePath": "B:\\Nebula Labs\\PhantasmV1-Contracts\\contracts\\EEIntegration.sol",
  "compiler": {
    "name": "solc",
    "version": "0.8.10+commit.fc410830.Emscripten.clang"
  },
  "schemaVersion": "3.4.2",
  "updatedAt": "2022-01-16T18:27:53.040Z",
  "devdoc": {
    "kind": "dev",
    "methods": {
      "supportsInterface(bytes4)": {
        "details": "See {IERC165-supportsInterface}."
      }
    },
    "version": 1
  },
  "userdoc": {
    "kind": "user",
    "methods": {},
    "version": 1
  }
}