{
  "contractName": "PhantasmManager",
  "abi": [
    {
      "inputs": [],
      "stateMutability": "nonpayable",
      "type": "constructor"
    },
    {
      "anonymous": false,
      "inputs": [
        {
          "indexed": true,
          "internalType": "address",
          "name": "owner",
          "type": "address"
        },
        {
          "indexed": true,
          "internalType": "address",
          "name": "approved",
          "type": "address"
        },
        {
          "indexed": true,
          "internalType": "uint256",
          "name": "tokenId",
          "type": "uint256"
        }
      ],
      "name": "Approval",
      "type": "event"
    },
    {
      "anonymous": false,
      "inputs": [
        {
          "indexed": true,
          "internalType": "address",
          "name": "owner",
          "type": "address"
        },
        {
          "indexed": true,
          "internalType": "address",
          "name": "operator",
          "type": "address"
        },
        {
          "indexed": false,
          "internalType": "bool",
          "name": "approved",
          "type": "bool"
        }
      ],
      "name": "ApprovalForAll",
      "type": "event"
    },
    {
      "anonymous": false,
      "inputs": [
        {
          "indexed": true,
          "internalType": "address",
          "name": "from",
          "type": "address"
        },
        {
          "indexed": true,
          "internalType": "address",
          "name": "to",
          "type": "address"
        },
        {
          "indexed": true,
          "internalType": "uint256",
          "name": "tokenId",
          "type": "uint256"
        }
      ],
      "name": "Transfer",
      "type": "event"
    },
    {
      "inputs": [
        {
          "internalType": "address",
          "name": "to",
          "type": "address"
        },
        {
          "internalType": "uint256",
          "name": "tokenId",
          "type": "uint256"
        }
      ],
      "name": "approve",
      "outputs": [],
      "stateMutability": "nonpayable",
      "type": "function"
    },
    {
      "inputs": [
        {
          "internalType": "address",
          "name": "owner",
          "type": "address"
        }
      ],
      "name": "balanceOf",
      "outputs": [
        {
          "internalType": "uint256",
          "name": "",
          "type": "uint256"
        }
      ],
      "stateMutability": "view",
      "type": "function"
    },
    {
      "inputs": [
        {
          "internalType": "uint256",
          "name": "",
          "type": "uint256"
        }
      ],
      "name": "bondImplementations",
      "outputs": [
        {
          "internalType": "address",
          "name": "",
          "type": "address"
        }
      ],
      "stateMutability": "view",
      "type": "function"
    },
    {
      "inputs": [
        {
          "internalType": "uint256",
          "name": "tokenId",
          "type": "uint256"
        }
      ],
      "name": "getApproved",
      "outputs": [
        {
          "internalType": "address",
          "name": "",
          "type": "address"
        }
      ],
      "stateMutability": "view",
      "type": "function"
    },
    {
      "inputs": [
        {
          "internalType": "address",
          "name": "owner",
          "type": "address"
        },
        {
          "internalType": "address",
          "name": "operator",
          "type": "address"
        }
      ],
      "name": "isApprovedForAll",
      "outputs": [
        {
          "internalType": "bool",
          "name": "",
          "type": "bool"
        }
      ],
      "stateMutability": "view",
      "type": "function"
    },
    {
      "inputs": [
        {
          "internalType": "uint256",
          "name": "",
          "type": "uint256"
        }
      ],
      "name": "lenderImplementations",
      "outputs": [
        {
          "internalType": "address",
          "name": "",
          "type": "address"
        }
      ],
      "stateMutability": "view",
      "type": "function"
    },
    {
      "inputs": [],
      "name": "name",
      "outputs": [
        {
          "internalType": "string",
          "name": "",
          "type": "string"
        }
      ],
      "stateMutability": "view",
      "type": "function"
    },
    {
      "inputs": [
        {
          "internalType": "uint256",
          "name": "tokenId",
          "type": "uint256"
        }
      ],
      "name": "ownerOf",
      "outputs": [
        {
          "internalType": "address",
          "name": "",
          "type": "address"
        }
      ],
      "stateMutability": "view",
      "type": "function"
    },
    {
      "inputs": [
        {
          "internalType": "address",
          "name": "from",
          "type": "address"
        },
        {
          "internalType": "address",
          "name": "to",
          "type": "address"
        },
        {
          "internalType": "uint256",
          "name": "tokenId",
          "type": "uint256"
        }
      ],
      "name": "safeTransferFrom",
      "outputs": [],
      "stateMutability": "nonpayable",
      "type": "function"
    },
    {
      "inputs": [
        {
          "internalType": "address",
          "name": "from",
          "type": "address"
        },
        {
          "internalType": "address",
          "name": "to",
          "type": "address"
        },
        {
          "internalType": "uint256",
          "name": "tokenId",
          "type": "uint256"
        },
        {
          "internalType": "bytes",
          "name": "_data",
          "type": "bytes"
        }
      ],
      "name": "safeTransferFrom",
      "outputs": [],
      "stateMutability": "nonpayable",
      "type": "function"
    },
    {
      "inputs": [
        {
          "internalType": "address",
          "name": "operator",
          "type": "address"
        },
        {
          "internalType": "bool",
          "name": "approved",
          "type": "bool"
        }
      ],
      "name": "setApprovalForAll",
      "outputs": [],
      "stateMutability": "nonpayable",
      "type": "function"
    },
    {
      "inputs": [
        {
          "internalType": "bytes4",
          "name": "interfaceId",
          "type": "bytes4"
        }
      ],
      "name": "supportsInterface",
      "outputs": [
        {
          "internalType": "bool",
          "name": "",
          "type": "bool"
        }
      ],
      "stateMutability": "view",
      "type": "function"
    },
    {
      "inputs": [
        {
          "internalType": "uint256",
          "name": "",
          "type": "uint256"
        }
      ],
      "name": "swapImplementations",
      "outputs": [
        {
          "internalType": "address",
          "name": "",
          "type": "address"
        }
      ],
      "stateMutability": "view",
      "type": "function"
    },
    {
      "inputs": [],
      "name": "symbol",
      "outputs": [
        {
          "internalType": "string",
          "name": "",
          "type": "string"
        }
      ],
      "stateMutability": "view",
      "type": "function"
    },
    {
      "inputs": [
        {
          "internalType": "uint256",
          "name": "tokenId",
          "type": "uint256"
        }
      ],
      "name": "tokenURI",
      "outputs": [
        {
          "internalType": "string",
          "name": "",
          "type": "string"
        }
      ],
      "stateMutability": "view",
      "type": "function"
    },
    {
      "inputs": [
        {
          "internalType": "address",
          "name": "from",
          "type": "address"
        },
        {
          "internalType": "address",
          "name": "to",
          "type": "address"
        },
        {
          "internalType": "uint256",
          "name": "tokenId",
          "type": "uint256"
        }
      ],
      "name": "transferFrom",
      "outputs": [],
      "stateMutability": "nonpayable",
      "type": "function"
    },
    {
      "inputs": [
        {
          "internalType": "uint256",
          "name": "_tokenID",
          "type": "uint256"
        }
      ],
      "name": "viewPosition",
      "outputs": [
        {
          "components": [
            {
              "internalType": "bool",
              "name": "isLong",
              "type": "bool"
            },
            {
              "internalType": "bool",
              "name": "isInsulated",
              "type": "bool"
            },
            {
              "internalType": "address",
              "name": "asset",
              "type": "address"
            },
            {
              "internalType": "address",
              "name": "stablecoin",
              "type": "address"
            },
            {
              "internalType": "uint256",
              "name": "debtOwed",
              "type": "uint256"
            },
            {
              "internalType": "uint256",
              "name": "totalCollateral",
              "type": "uint256"
            },
            {
              "internalType": "uint64",
              "name": "lender",
              "type": "uint64"
            }
          ],
          "internalType": "struct PhantasmManager.Position",
          "name": "",
          "type": "tuple"
        }
      ],
      "stateMutability": "view",
      "type": "function"
    },
    {
      "inputs": [
        {
          "internalType": "address",
          "name": "_implementation",
          "type": "address"
        }
      ],
      "name": "addSwapImplementation",
      "outputs": [],
      "stateMutability": "nonpayable",
      "type": "function"
    },
    {
      "inputs": [
        {
          "internalType": "address",
          "name": "_implementation",
          "type": "address"
        }
      ],
      "name": "addLenderImplementation",
      "outputs": [],
      "stateMutability": "nonpayable",
      "type": "function"
    },
    {
      "inputs": [
        {
          "internalType": "address",
          "name": "_implementation",
          "type": "address"
        }
      ],
      "name": "addBondImplementation",
      "outputs": [],
      "stateMutability": "nonpayable",
      "type": "function"
    },
    {
      "inputs": [
        {
          "internalType": "uint64",
          "name": "_lenderImplementation",
          "type": "uint64"
        },
        {
          "internalType": "uint64",
          "name": "_swapImplementation",
          "type": "uint64"
        },
        {
          "internalType": "address",
          "name": "_longToken",
          "type": "address"
        },
        {
          "internalType": "uint256",
          "name": "_borrowFactor",
          "type": "uint256"
        },
        {
          "internalType": "uint256",
          "name": "_assetAmount",
          "type": "uint256"
        },
        {
          "internalType": "uint256",
          "name": "_initialBorrow",
          "type": "uint256"
        }
      ],
      "name": "openLongPositionNFT",
      "outputs": [
        {
          "internalType": "uint256",
          "name": "",
          "type": "uint256"
        }
      ],
      "stateMutability": "nonpayable",
      "type": "function"
    },
    {
      "inputs": [
        {
          "internalType": "uint256",
          "name": "_tokenID",
          "type": "uint256"
        },
        {
          "internalType": "uint8",
          "name": "_swapImplementation",
          "type": "uint8"
        },
        {
          "internalType": "uint256",
          "name": "_interestAccured",
          "type": "uint256"
        }
      ],
      "name": "closeLongPosition",
      "outputs": [],
      "stateMutability": "nonpayable",
      "type": "function"
    },
    {
      "inputs": [
        {
          "internalType": "uint64",
          "name": "_lenderImplementation",
          "type": "uint64"
        },
        {
          "internalType": "uint64",
          "name": "_swapImplementation",
          "type": "uint64"
        },
        {
          "internalType": "address",
          "name": "_shortToken",
          "type": "address"
        },
        {
          "internalType": "uint256",
          "name": "_borrowFactor",
          "type": "uint256"
        },
        {
          "internalType": "uint256",
          "name": "_assetAmount",
          "type": "uint256"
        },
        {
          "internalType": "uint256",
          "name": "_initialBorrow",
          "type": "uint256"
        }
      ],
      "name": "openShortPositionNFT",
      "outputs": [
        {
          "internalType": "uint256",
          "name": "",
          "type": "uint256"
        }
      ],
      "stateMutability": "nonpayable",
      "type": "function"
    },
    {
      "inputs": [
        {
          "internalType": "uint256",
          "name": "_tokenID",
          "type": "uint256"
        },
        {
          "internalType": "uint8",
          "name": "_swapImplementation",
          "type": "uint8"
        },
        {
          "internalType": "uint256",
          "name": "_interestAccured",
          "type": "uint256"
        }
      ],
      "name": "closeShortPosition",
      "outputs": [],
      "stateMutability": "nonpayable",
      "type": "function"
    },
    {
      "inputs": [
        {
          "internalType": "address",
          "name": "_longToken",
          "type": "address"
        },
        {
          "internalType": "uint256",
          "name": "_borrowFactor",
          "type": "uint256"
        },
        {
          "internalType": "uint256",
          "name": "_assetAmount",
          "type": "uint256"
        },
        {
          "internalType": "uint256",
          "name": "_initialBorrow",
          "type": "uint256"
        },
        {
          "internalType": "uint64",
          "name": "_depositId",
          "type": "uint64"
        },
        {
          "internalType": "uint256",
          "name": "stableFundAmount",
          "type": "uint256"
        }
      ],
      "name": "openInsulatedLongPositionNFT",
      "outputs": [
        {
          "internalType": "uint256",
          "name": "",
          "type": "uint256"
        }
      ],
      "stateMutability": "nonpayable",
      "type": "function"
    },
    {
      "inputs": [
        {
          "internalType": "uint256",
          "name": "_tokenID",
          "type": "uint256"
        },
        {
          "internalType": "uint8",
          "name": "_swapImplementation",
          "type": "uint8"
        },
        {
          "internalType": "uint64",
          "name": "_bondImplementation",
          "type": "uint64"
        },
        {
          "internalType": "uint256",
          "name": "_tipFee",
          "type": "uint256"
        }
      ],
      "name": "closeInsulatedLongPosition",
      "outputs": [],
      "stateMutability": "nonpayable",
      "type": "function"
    }
  ],
  "bytecode": "0x60c0604052736b175474e89094c44da98b954eedeac495271d0f73ffffffffffffffffffffffffffffffffffffffff1660809073ffffffffffffffffffffffffffffffffffffffff16815250736d97ea6e14d35e10b50df9475e9efaad1982065e73ffffffffffffffffffffffffffffffffffffffff1660a09073ffffffffffffffffffffffffffffffffffffffff168152506000600855348015620000a457600080fd5b506040518060400160405280601181526020017f5068616e7461736d20506f736974696f6e0000000000000000000000000000008152506040518060400160405280600581526020017f53504354520000000000000000000000000000000000000000000000000000008152508160009080519060200190620001299291906200018c565b508060019080519060200190620001429291906200018c565b50505033600660006101000a81548173ffffffffffffffffffffffffffffffffffffffff021916908373ffffffffffffffffffffffffffffffffffffffff160217905550620002a1565b8280546200019a906200026b565b90600052602060002090601f016020900481019282620001be57600085556200020a565b82601f10620001d957805160ff19168380011785556200020a565b828001600101855582156200020a579182015b8281111562000209578251825591602001919060010190620001ec565b5b5090506200021991906200021d565b5090565b5b80821115620002385760008160009055506001016200021e565b5090565b7f4e487b7100000000000000000000000000000000000000000000000000000000600052602260045260246000fd5b600060028204905060018216806200028457607f821691505b602082108114156200029b576200029a6200023c565b5b50919050565b60805160a051614d0e6200031b6000396000612499015260008181610c5d01528181610db001528181610f4b0152818161109e0152818161147a0152818161151b0152818161178801528181611e5501528181611f8c0152818161202d015281816121800152818161235e01526127530152614d0e6000f3fe608060405234801561001057600080fd5b506004361061018e5760003560e01c806386d5effe116100de578063c87b56dd11610097578063e0009d5011610071578063e0009d50146104c7578063e2cfda00146104f7578063e985e9c514610513578063f19cd9ec146105435761018e565b8063c87b56dd14610437578063d4372b3314610467578063d84e0d6a146104975761018e565b806386d5effe1461036557806395d89b4114610395578063a22cb465146103b3578063b18373b8146103cf578063b6e222e0146103ff578063b88d4fde1461041b5761018e565b80633f3413a71161014b5780635973dbb4116101255780635973dbb4146102cd5780636352211e146102e957806370a0823114610319578063744f7c7b146103495761018e565b80633f3413a71461027957806342842e0e146102955780634f902a5f146102b15761018e565b806301ffc9a71461019357806306fdde03146101c3578063081812fc146101e1578063095ea7b3146102115780631448b9d51461022d57806323b872dd1461025d575b600080fd5b6101ad60048036038101906101a891906135af565b610573565b6040516101ba91906135f7565b60405180910390f35b6101cb610655565b6040516101d891906136ab565b60405180910390f35b6101fb60048036038101906101f69190613703565b6106e7565b6040516102089190613771565b60405180910390f35b61022b600480360381019061022691906137b8565b61076c565b005b61024760048036038101906102429190613703565b610884565b6040516102549190613771565b60405180910390f35b610277600480360381019061027291906137f8565b6108c3565b005b610293600480360381019061028e919061384b565b610923565b005b6102af60048036038101906102aa91906137f8565b6109e3565b005b6102cb60048036038101906102c691906138b1565b610a03565b005b6102e760048036038101906102e29190613944565b610d1d565b005b61030360048036038101906102fe9190613703565b611165565b6040516103109190613771565b60405180910390f35b610333600480360381019061032e919061384b565b611217565b60405161034091906139ba565b60405180910390f35b610363600480360381019061035e919061384b565b6112cf565b005b61037f600480360381019061037a9190613703565b61138f565b60405161038c9190613771565b60405180910390f35b61039d6113ce565b6040516103aa91906136ab565b60405180910390f35b6103cd60048036038101906103c89190613a01565b611460565b005b6103e960048036038101906103e49190613a41565b611476565b6040516103f691906139ba565b60405180910390f35b6104196004803603810190610414919061384b565b611826565b005b61043560048036038101906104309190613c03565b6118e6565b005b610451600480360381019061044c9190613703565b611948565b60405161045e91906136ab565b60405180910390f35b610481600480360381019061047c9190613703565b6119ef565b60405161048e9190613771565b60405180910390f35b6104b160048036038101906104ac9190613703565b611a2e565b6040516104be9190613d50565b60405180910390f35b6104e160048036038101906104dc9190613a41565b611b83565b6040516104ee91906139ba565b60405180910390f35b610511600480360381019061050c91906138b1565b611ef3565b005b61052d60048036038101906105289190613d6b565b612245565b60405161053a91906135f7565b60405180910390f35b61055d60048036038101906105589190613dab565b6122d9565b60405161056a91906139ba565b60405180910390f35b60007f80ac58cd000000000000000000000000000000000000000000000000000000007bffffffffffffffffffffffffffffffffffffffffffffffffffffffff1916827bffffffffffffffffffffffffffffffffffffffffffffffffffffffff1916148061063e57507f5b5e139f000000000000000000000000000000000000000000000000000000007bffffffffffffffffffffffffffffffffffffffffffffffffffffffff1916827bffffffffffffffffffffffffffffffffffffffffffffffffffffffff1916145b8061064e575061064d826127f2565b5b9050919050565b60606000805461066490613e67565b80601f016020809104026020016040519081016040528092919081815260200182805461069090613e67565b80156106dd5780601f106106b2576101008083540402835291602001916106dd565b820191906000526020600020905b8154815290600101906020018083116106c057829003601f168201915b5050505050905090565b60006106f28261285c565b610731576040517f08c379a000000000000000000000000000000000000000000000000000000000815260040161072890613f0b565b60405180910390fd5b6004600083815260200190815260200160002060009054906101000a900473ffffffffffffffffffffffffffffffffffffffff169050919050565b600061077782611165565b90508073ffffffffffffffffffffffffffffffffffffffff168373ffffffffffffffffffffffffffffffffffffffff1614156107e8576040517f08c379a00000000000000000000000000000000000000000000000000000000081526004016107df90613f9d565b60405180910390fd5b8073ffffffffffffffffffffffffffffffffffffffff166108076128c8565b73ffffffffffffffffffffffffffffffffffffffff1614806108365750610835816108306128c8565b612245565b5b610875576040517f08c379a000000000000000000000000000000000000000000000000000000000815260040161086c9061402f565b60405180910390fd5b61087f83836128d0565b505050565b600a818154811061089457600080fd5b906000526020600020016000915054906101000a900473ffffffffffffffffffffffffffffffffffffffff1681565b6108d46108ce6128c8565b82612989565b610913576040517f08c379a000000000000000000000000000000000000000000000000000000000815260040161090a906140c1565b60405180910390fd5b61091e838383612a67565b505050565b600660009054906101000a900473ffffffffffffffffffffffffffffffffffffffff1673ffffffffffffffffffffffffffffffffffffffff163373ffffffffffffffffffffffffffffffffffffffff161461097d57600080fd5b600a819080600181540180825580915050600190039060005260206000200160009091909190916101000a81548173ffffffffffffffffffffffffffffffffffffffff021916908373ffffffffffffffffffffffffffffffffffffffff16021790555050565b6109fe838383604051806020016040528060008152506118e6565b505050565b3373ffffffffffffffffffffffffffffffffffffffff16610a2384611165565b73ffffffffffffffffffffffffffffffffffffffff1614610a79576040517f08c379a0000000000000000000000000000000000000000000000000000000008152600401610a7090614153565b60405180910390fd5b6000610a8484611a2e565b90506000816080015183610a9891906141a2565b9050816040015173ffffffffffffffffffffffffffffffffffffffff166323b872dd3330846040518463ffffffff1660e01b8152600401610adb939291906141f8565b6020604051808303816000875af1158015610afa573d6000803e3d6000fd5b505050506040513d601f19601f82011682018060405250810190610b1e9190614244565b50816040015173ffffffffffffffffffffffffffffffffffffffff1663095ea7b3600a8460c0015167ffffffffffffffff1681548110610b6157610b60614271565b5b9060005260206000200160009054906101000a900473ffffffffffffffffffffffffffffffffffffffff16836040518363ffffffff1660e01b8152600401610baa9291906142a0565b6020604051808303816000875af1158015610bc9573d6000803e3d6000fd5b505050506040513d601f19601f82011682018060405250810190610bed9190614244565b50600a8260c0015167ffffffffffffffff1681548110610c1057610c0f614271565b5b9060005260206000200160009054906101000a900473ffffffffffffffffffffffffffffffffffffffff1673ffffffffffffffffffffffffffffffffffffffff166330802ff783604001517f000000000000000000000000000000000000000000000000000000000000000060098860ff1681548110610c9357610c92614271565b5b9060005260206000200160009054906101000a900473ffffffffffffffffffffffffffffffffffffffff16858760a001516040518663ffffffff1660e01b8152600401610ce49594939291906142c9565b600060405180830381600087803b158015610cfe57600080fd5b505af1158015610d12573d6000803e3d6000fd5b505050505050505050565b3373ffffffffffffffffffffffffffffffffffffffff16610d3d85611165565b73ffffffffffffffffffffffffffffffffffffffff1614610d93576040517f08c379a0000000000000000000000000000000000000000000000000000000008152600401610d8a90614153565b60405180910390fd5b6000610d9e85611a2e565b90508060200151610dae57600080fd5b7f000000000000000000000000000000000000000000000000000000000000000073ffffffffffffffffffffffffffffffffffffffff166323b872dd3330858560800151610dfc91906141a2565b6040518463ffffffff1660e01b8152600401610e1a939291906141f8565b6020604051808303816000875af1158015610e39573d6000803e3d6000fd5b505050506040513d601f19601f82011682018060405250810190610e5d9190614244565b506000600b8467ffffffffffffffff1681548110610e7e57610e7d614271565b5b9060005260206000200160009054906101000a900473ffffffffffffffffffffffffffffffffffffffff1673ffffffffffffffffffffffffffffffffffffffff166381a96daa83606001516040518263ffffffff1660e01b8152600401610ee59190613771565b6020604051808303816000875af1158015610f04573d6000803e3d6000fd5b505050506040513d601f19601f82011682018060405250810190610f289190614331565b9050600083836080015183610f3d91906141a2565b610f4791906141a2565b90507f000000000000000000000000000000000000000000000000000000000000000073ffffffffffffffffffffffffffffffffffffffff1663095ea7b3600a8560c0015167ffffffffffffffff1681548110610fa757610fa6614271565b5b9060005260206000200160009054906101000a900473ffffffffffffffffffffffffffffffffffffffff16836040518363ffffffff1660e01b8152600401610ff09291906142a0565b6020604051808303816000875af115801561100f573d6000803e3d6000fd5b505050506040513d601f19601f820116820180604052508101906110339190614244565b50600a8360c0015167ffffffffffffffff168154811061105657611055614271565b5b9060005260206000200160009054906101000a900473ffffffffffffffffffffffffffffffffffffffff1673ffffffffffffffffffffffffffffffffffffffff166330802ff77f0000000000000000000000000000000000000000000000000000000000000000856040015160098a60ff16815481106110d9576110d8614271565b5b9060005260206000200160009054906101000a900473ffffffffffffffffffffffffffffffffffffffff16858860a001516040518663ffffffff1660e01b815260040161112a9594939291906142c9565b600060405180830381600087803b15801561114457600080fd5b505af1158015611158573d6000803e3d6000fd5b5050505050505050505050565b6000806002600084815260200190815260200160002060009054906101000a900473ffffffffffffffffffffffffffffffffffffffff169050600073ffffffffffffffffffffffffffffffffffffffff168173ffffffffffffffffffffffffffffffffffffffff16141561120e576040517f08c379a0000000000000000000000000000000000000000000000000000000008152600401611205906143d0565b60405180910390fd5b80915050919050565b60008073ffffffffffffffffffffffffffffffffffffffff168273ffffffffffffffffffffffffffffffffffffffff161415611288576040517f08c379a000000000000000000000000000000000000000000000000000000000815260040161127f90614462565b60405180910390fd5b600360008373ffffffffffffffffffffffffffffffffffffffff1673ffffffffffffffffffffffffffffffffffffffff168152602001908152602001600020549050919050565b600660009054906101000a900473ffffffffffffffffffffffffffffffffffffffff1673ffffffffffffffffffffffffffffffffffffffff163373ffffffffffffffffffffffffffffffffffffffff161461132957600080fd5b6009819080600181540180825580915050600190039060005260206000200160009091909190916101000a81548173ffffffffffffffffffffffffffffffffffffffff021916908373ffffffffffffffffffffffffffffffffffffffff16021790555050565b6009818154811061139f57600080fd5b906000526020600020016000915054906101000a900473ffffffffffffffffffffffffffffffffffffffff1681565b6060600180546113dd90613e67565b80601f016020809104026020016040519081016040528092919081815260200182805461140990613e67565b80156114565780601f1061142b57610100808354040283529160200191611456565b820191906000526020600020905b81548152906001019060200180831161143957829003601f168201915b5050505050905090565b61147261146b6128c8565b8383612cc3565b5050565b60007f000000000000000000000000000000000000000000000000000000000000000073ffffffffffffffffffffffffffffffffffffffff166323b872dd3330866040518463ffffffff1660e01b81526004016114d5939291906141f8565b6020604051808303816000875af11580156114f4573d6000803e3d6000fd5b505050506040513d601f19601f820116820180604052508101906115189190614244565b507f000000000000000000000000000000000000000000000000000000000000000073ffffffffffffffffffffffffffffffffffffffff1663095ea7b3600a8967ffffffffffffffff168154811061157357611572614271565b5b9060005260206000200160009054906101000a900473ffffffffffffffffffffffffffffffffffffffff16856040518363ffffffff1660e01b81526004016115bc9291906142a0565b6020604051808303816000875af11580156115db573d6000803e3d6000fd5b505050506040513d601f19601f820116820180604052508101906115ff9190614244565b50600080600a8967ffffffffffffffff168154811061162157611620614271565b5b9060005260206000200160009054906101000a900473ffffffffffffffffffffffffffffffffffffffff1673ffffffffffffffffffffffffffffffffffffffff166327887ae48860098b67ffffffffffffffff168154811061168657611685614271565b5b9060005260206000200160009054906101000a900473ffffffffffffffffffffffffffffffffffffffff1688888b6040518663ffffffff1660e01b81526004016116d4959493929190614482565b60408051808303816000875af11580156116f2573d6000803e3d6000fd5b505050506040513d601f19601f8201168201806040525081019061171691906144d5565b915091506117226134cc565b6000816000019015159081151581525050600081602001901515908115158152505087816040019073ffffffffffffffffffffffffffffffffffffffff16908173ffffffffffffffffffffffffffffffffffffffff1681525050828160800181815250507f0000000000000000000000000000000000000000000000000000000000000000816060019073ffffffffffffffffffffffffffffffffffffffff16908173ffffffffffffffffffffffffffffffffffffffff1681525050818160a0018181525050898160c0019067ffffffffffffffff16908167ffffffffffffffff1681525050600061181382612e30565b9050809450505050509695505050505050565b600660009054906101000a900473ffffffffffffffffffffffffffffffffffffffff1673ffffffffffffffffffffffffffffffffffffffff163373ffffffffffffffffffffffffffffffffffffffff161461188057600080fd5b600b819080600181540180825580915050600190039060005260206000200160009091909190916101000a81548173ffffffffffffffffffffffffffffffffffffffff021916908373ffffffffffffffffffffffffffffffffffffffff16021790555050565b6118f76118f16128c8565b83612989565b611936576040517f08c379a000000000000000000000000000000000000000000000000000000000815260040161192d906140c1565b60405180910390fd5b61194284848484612f8a565b50505050565b60606119538261285c565b611992576040517f08c379a000000000000000000000000000000000000000000000000000000000815260040161198990614587565b60405180910390fd5b600061199c612fe6565b905060008151116119bc57604051806020016040528060008152506119e7565b806119c684612ffd565b6040516020016119d79291906145e3565b6040516020818303038152906040525b915050919050565b600b81815481106119ff57600080fd5b906000526020600020016000915054906101000a900473ffffffffffffffffffffffffffffffffffffffff1681565b611a366134cc565b600760008381526020019081526020016000206040518060e00160405290816000820160009054906101000a900460ff161515151581526020016000820160019054906101000a900460ff161515151581526020016000820160029054906101000a900473ffffffffffffffffffffffffffffffffffffffff1673ffffffffffffffffffffffffffffffffffffffff1673ffffffffffffffffffffffffffffffffffffffff1681526020016001820160009054906101000a900473ffffffffffffffffffffffffffffffffffffffff1673ffffffffffffffffffffffffffffffffffffffff1673ffffffffffffffffffffffffffffffffffffffff16815260200160028201548152602001600382015481526020016004820160009054906101000a900467ffffffffffffffff1667ffffffffffffffff1667ffffffffffffffff16815250509050919050565b60008473ffffffffffffffffffffffffffffffffffffffff166323b872dd3330866040518463ffffffff1660e01b8152600401611bc2939291906141f8565b6020604051808303816000875af1158015611be1573d6000803e3d6000fd5b505050506040513d601f19601f82011682018060405250810190611c059190614244565b508473ffffffffffffffffffffffffffffffffffffffff1663095ea7b3600a8967ffffffffffffffff1681548110611c4057611c3f614271565b5b9060005260206000200160009054906101000a900473ffffffffffffffffffffffffffffffffffffffff16856040518363ffffffff1660e01b8152600401611c899291906142a0565b6020604051808303816000875af1158015611ca8573d6000803e3d6000fd5b505050506040513d601f19601f82011682018060405250810190611ccc9190614244565b50600080600a8967ffffffffffffffff1681548110611cee57611ced614271565b5b9060005260206000200160009054906101000a900473ffffffffffffffffffffffffffffffffffffffff1673ffffffffffffffffffffffffffffffffffffffff1663526597948860098b67ffffffffffffffff1681548110611d5357611d52614271565b5b9060005260206000200160009054906101000a900473ffffffffffffffffffffffffffffffffffffffff1688888b6040518663ffffffff1660e01b8152600401611da1959493929190614482565b60408051808303816000875af1158015611dbf573d6000803e3d6000fd5b505050506040513d601f19601f82011682018060405250810190611de391906144d5565b91509150611def6134cc565b6001816000019015159081151581525050600081602001901515908115158152505087816040019073ffffffffffffffffffffffffffffffffffffffff16908173ffffffffffffffffffffffffffffffffffffffff1681525050828160800181815250507f0000000000000000000000000000000000000000000000000000000000000000816060019073ffffffffffffffffffffffffffffffffffffffff16908173ffffffffffffffffffffffffffffffffffffffff1681525050818160a0018181525050898160c0019067ffffffffffffffff16908167ffffffffffffffff16815250506000611ee082612e30565b9050809450505050509695505050505050565b3373ffffffffffffffffffffffffffffffffffffffff16611f1384611165565b73ffffffffffffffffffffffffffffffffffffffff1614611f69576040517f08c379a0000000000000000000000000000000000000000000000000000000008152600401611f6090614679565b60405180910390fd5b6000611f7484611a2e565b90506000816080015183611f8891906141a2565b90507f000000000000000000000000000000000000000000000000000000000000000073ffffffffffffffffffffffffffffffffffffffff166323b872dd3330846040518463ffffffff1660e01b8152600401611fe7939291906141f8565b6020604051808303816000875af1158015612006573d6000803e3d6000fd5b505050506040513d601f19601f8201168201806040525081019061202a9190614244565b507f000000000000000000000000000000000000000000000000000000000000000073ffffffffffffffffffffffffffffffffffffffff1663095ea7b3600a8460c0015167ffffffffffffffff168154811061208957612088614271565b5b9060005260206000200160009054906101000a900473ffffffffffffffffffffffffffffffffffffffff16836040518363ffffffff1660e01b81526004016120d29291906142a0565b6020604051808303816000875af11580156120f1573d6000803e3d6000fd5b505050506040513d601f19601f820116820180604052508101906121159190614244565b50600a8260c0015167ffffffffffffffff168154811061213857612137614271565b5b9060005260206000200160009054906101000a900473ffffffffffffffffffffffffffffffffffffffff1673ffffffffffffffffffffffffffffffffffffffff166330802ff77f0000000000000000000000000000000000000000000000000000000000000000846040015160098860ff16815481106121bb576121ba614271565b5b9060005260206000200160009054906101000a900473ffffffffffffffffffffffffffffffffffffffff16858760a001516040518663ffffffff1660e01b815260040161220c9594939291906142c9565b600060405180830381600087803b15801561222657600080fd5b505af115801561223a573d6000803e3d6000fd5b505050505050505050565b6000600560008473ffffffffffffffffffffffffffffffffffffffff1673ffffffffffffffffffffffffffffffffffffffff16815260200190815260200160002060008373ffffffffffffffffffffffffffffffffffffffff1673ffffffffffffffffffffffffffffffffffffffff16815260200190815260200160002060009054906101000a900460ff16905092915050565b60008673ffffffffffffffffffffffffffffffffffffffff166323b872dd3330886040518463ffffffff1660e01b8152600401612318939291906141f8565b6020604051808303816000875af1158015612337573d6000803e3d6000fd5b505050506040513d601f19601f8201168201806040525081019061235b9190614244565b507f000000000000000000000000000000000000000000000000000000000000000073ffffffffffffffffffffffffffffffffffffffff166323b872dd33600b6000815481106123ae576123ad614271565b5b9060005260206000200160009054906101000a900473ffffffffffffffffffffffffffffffffffffffff16856040518463ffffffff1660e01b81526004016123f8939291906141f8565b6020604051808303816000875af1158015612417573d6000803e3d6000fd5b505050506040513d601f19601f8201168201806040525081019061243b9190614244565b50600b60008154811061245157612450614271565b5b9060005260206000200160009054906101000a900473ffffffffffffffffffffffffffffffffffffffff1673ffffffffffffffffffffffffffffffffffffffff1663844b8b9a7f000000000000000000000000000000000000000000000000000000000000000085856040518463ffffffff1660e01b81526004016124d8939291906146a8565b6080604051808303816000875af11580156124f7573d6000803e3d6000fd5b505050506040513d601f19601f8201168201806040525081019061251b91906146f4565b505050508673ffffffffffffffffffffffffffffffffffffffff1663095ea7b3600a6000815481106125505761254f614271565b5b9060005260206000200160009054906101000a900473ffffffffffffffffffffffffffffffffffffffff16876040518363ffffffff1660e01b81526004016125999291906142a0565b6020604051808303816000875af11580156125b8573d6000803e3d6000fd5b505050506040513d601f19601f820116820180604052508101906125dc9190614244565b50600080600a6000815481106125f5576125f4614271565b5b9060005260206000200160009054906101000a900473ffffffffffffffffffffffffffffffffffffffff1673ffffffffffffffffffffffffffffffffffffffff1663526597948a600960008154811061265157612650614271565b5b9060005260206000200160009054906101000a900473ffffffffffffffffffffffffffffffffffffffff168a8a8d6040518663ffffffff1660e01b815260040161269f959493929190614482565b60408051808303816000875af11580156126bd573d6000803e3d6000fd5b505050506040513d601f19601f820116820180604052508101906126e191906144d5565b915091506126ed6134cc565b6001816000019015159081151581525050600181602001901515908115158152505089816040019073ffffffffffffffffffffffffffffffffffffffff16908173ffffffffffffffffffffffffffffffffffffffff1681525050828160800181815250507f0000000000000000000000000000000000000000000000000000000000000000816060019073ffffffffffffffffffffffffffffffffffffffff16908173ffffffffffffffffffffffffffffffffffffffff1681525050818160a001818152505060008160c0019067ffffffffffffffff16908167ffffffffffffffff168152505060006127df82612e30565b9050809450505050509695505050505050565b60007f01ffc9a7000000000000000000000000000000000000000000000000000000007bffffffffffffffffffffffffffffffffffffffffffffffffffffffff1916827bffffffffffffffffffffffffffffffffffffffffffffffffffffffff1916149050919050565b60008073ffffffffffffffffffffffffffffffffffffffff166002600084815260200190815260200160002060009054906101000a900473ffffffffffffffffffffffffffffffffffffffff1673ffffffffffffffffffffffffffffffffffffffff1614159050919050565b600033905090565b816004600083815260200190815260200160002060006101000a81548173ffffffffffffffffffffffffffffffffffffffff021916908373ffffffffffffffffffffffffffffffffffffffff160217905550808273ffffffffffffffffffffffffffffffffffffffff1661294383611165565b73ffffffffffffffffffffffffffffffffffffffff167f8c5be1e5ebec7d5bd14f71427d1e84f3dd0314c0f7b2291e5b200ac8c7c3b92560405160405180910390a45050565b60006129948261285c565b6129d3576040517f08c379a00000000000000000000000000000000000000000000000000000000081526004016129ca906147cd565b60405180910390fd5b60006129de83611165565b90508073ffffffffffffffffffffffffffffffffffffffff168473ffffffffffffffffffffffffffffffffffffffff161480612a4d57508373ffffffffffffffffffffffffffffffffffffffff16612a35846106e7565b73ffffffffffffffffffffffffffffffffffffffff16145b80612a5e5750612a5d8185612245565b5b91505092915050565b8273ffffffffffffffffffffffffffffffffffffffff16612a8782611165565b73ffffffffffffffffffffffffffffffffffffffff1614612add576040517f08c379a0000000000000000000000000000000000000000000000000000000008152600401612ad49061485f565b60405180910390fd5b600073ffffffffffffffffffffffffffffffffffffffff168273ffffffffffffffffffffffffffffffffffffffff161415612b4d576040517f08c379a0000000000000000000000000000000000000000000000000000000008152600401612b44906148f1565b60405180910390fd5b612b5883838361315e565b612b636000826128d0565b6001600360008573ffffffffffffffffffffffffffffffffffffffff1673ffffffffffffffffffffffffffffffffffffffff1681526020019081526020016000206000828254612bb39190614911565b925050819055506001600360008473ffffffffffffffffffffffffffffffffffffffff1673ffffffffffffffffffffffffffffffffffffffff1681526020019081526020016000206000828254612c0a91906141a2565b92505081905550816002600083815260200190815260200160002060006101000a81548173ffffffffffffffffffffffffffffffffffffffff021916908373ffffffffffffffffffffffffffffffffffffffff160217905550808273ffffffffffffffffffffffffffffffffffffffff168473ffffffffffffffffffffffffffffffffffffffff167fddf252ad1be2c89b69c2b068fc378daa952ba7f163c4a11628f55a4df523b3ef60405160405180910390a4505050565b8173ffffffffffffffffffffffffffffffffffffffff168373ffffffffffffffffffffffffffffffffffffffff161415612d32576040517f08c379a0000000000000000000000000000000000000000000000000000000008152600401612d2990614991565b60405180910390fd5b80600560008573ffffffffffffffffffffffffffffffffffffffff1673ffffffffffffffffffffffffffffffffffffffff16815260200190815260200160002060008473ffffffffffffffffffffffffffffffffffffffff1673ffffffffffffffffffffffffffffffffffffffff16815260200190815260200160002060006101000a81548160ff0219169083151502179055508173ffffffffffffffffffffffffffffffffffffffff168373ffffffffffffffffffffffffffffffffffffffff167f17307eab39ab6107e8899845ad3d59bd9653f200f220920489ca2b5937696c3183604051612e2391906135f7565b60405180910390a3505050565b600060086000815480929190612e45906149b1565b91905055508160076000600854815260200190815260200160002060008201518160000160006101000a81548160ff02191690831515021790555060208201518160000160016101000a81548160ff02191690831515021790555060408201518160000160026101000a81548173ffffffffffffffffffffffffffffffffffffffff021916908373ffffffffffffffffffffffffffffffffffffffff16021790555060608201518160010160006101000a81548173ffffffffffffffffffffffffffffffffffffffff021916908373ffffffffffffffffffffffffffffffffffffffff1602179055506080820151816002015560a0820151816003015560c08201518160040160006101000a81548167ffffffffffffffff021916908367ffffffffffffffff160217905550905050612f8033600854613163565b6008549050919050565b612f95848484612a67565b612fa184848484613331565b612fe0576040517f08c379a0000000000000000000000000000000000000000000000000000000008152600401612fd790614a6c565b60405180910390fd5b50505050565b606060405180602001604052806000815250905090565b60606000821415613045576040518060400160405280600181526020017f30000000000000000000000000000000000000000000000000000000000000008152509050613159565b600082905060005b60008214613077578080613060906149b1565b915050600a826130709190614abb565b915061304d565b60008167ffffffffffffffff81111561309357613092613ad8565b5b6040519080825280601f01601f1916602001820160405280156130c55781602001600182028036833780820191505090505b5090505b60008514613152576001826130de9190614911565b9150600a856130ed9190614aec565b60306130f991906141a2565b60f81b81838151811061310f5761310e614271565b5b60200101907effffffffffffffffffffffffffffffffffffffffffffffffffffffffffffff1916908160001a905350600a8561314b9190614abb565b94506130c9565b8093505050505b919050565b505050565b600073ffffffffffffffffffffffffffffffffffffffff168273ffffffffffffffffffffffffffffffffffffffff1614156131d3576040517f08c379a00000000000000000000000000000000000000000000000000000000081526004016131ca90614b69565b60405180910390fd5b6131dc8161285c565b1561321c576040517f08c379a000000000000000000000000000000000000000000000000000000000815260040161321390614bd5565b60405180910390fd5b6132286000838361315e565b6001600360008473ffffffffffffffffffffffffffffffffffffffff1673ffffffffffffffffffffffffffffffffffffffff168152602001908152602001600020600082825461327891906141a2565b92505081905550816002600083815260200190815260200160002060006101000a81548173ffffffffffffffffffffffffffffffffffffffff021916908373ffffffffffffffffffffffffffffffffffffffff160217905550808273ffffffffffffffffffffffffffffffffffffffff16600073ffffffffffffffffffffffffffffffffffffffff167fddf252ad1be2c89b69c2b068fc378daa952ba7f163c4a11628f55a4df523b3ef60405160405180910390a45050565b60006133528473ffffffffffffffffffffffffffffffffffffffff166134b9565b156134ac578373ffffffffffffffffffffffffffffffffffffffff1663150b7a0261337b6128c8565b8786866040518563ffffffff1660e01b815260040161339d9493929190614c4a565b6020604051808303816000875af19250505080156133d957506040513d601f19601f820116820180604052508101906133d69190614cab565b60015b61345c573d8060008114613409576040519150601f19603f3d011682016040523d82523d6000602084013e61340e565b606091505b50600081511415613454576040517f08c379a000000000000000000000000000000000000000000000000000000000815260040161344b90614a6c565b60405180910390fd5b805181602001fd5b63150b7a0260e01b7bffffffffffffffffffffffffffffffffffffffffffffffffffffffff1916817bffffffffffffffffffffffffffffffffffffffffffffffffffffffff1916149150506134b1565b600190505b949350505050565b600080823b905060008111915050919050565b6040518060e00160405280600015158152602001600015158152602001600073ffffffffffffffffffffffffffffffffffffffff168152602001600073ffffffffffffffffffffffffffffffffffffffff1681526020016000815260200160008152602001600067ffffffffffffffff1681525090565b6000604051905090565b600080fd5b600080fd5b60007fffffffff0000000000000000000000000000000000000000000000000000000082169050919050565b61358c81613557565b811461359757600080fd5b50565b6000813590506135a981613583565b92915050565b6000602082840312156135c5576135c461354d565b5b60006135d38482850161359a565b91505092915050565b60008115159050919050565b6135f1816135dc565b82525050565b600060208201905061360c60008301846135e8565b92915050565b600081519050919050565b600082825260208201905092915050565b60005b8381101561364c578082015181840152602081019050613631565b8381111561365b576000848401525b50505050565b6000601f19601f8301169050919050565b600061367d82613612565b613687818561361d565b935061369781856020860161362e565b6136a081613661565b840191505092915050565b600060208201905081810360008301526136c58184613672565b905092915050565b6000819050919050565b6136e0816136cd565b81146136eb57600080fd5b50565b6000813590506136fd816136d7565b92915050565b6000602082840312156137195761371861354d565b5b6000613727848285016136ee565b91505092915050565b600073ffffffffffffffffffffffffffffffffffffffff82169050919050565b600061375b82613730565b9050919050565b61376b81613750565b82525050565b60006020820190506137866000830184613762565b92915050565b61379581613750565b81146137a057600080fd5b50565b6000813590506137b28161378c565b92915050565b600080604083850312156137cf576137ce61354d565b5b60006137dd858286016137a3565b92505060206137ee858286016136ee565b9150509250929050565b6000806000606084860312156138115761381061354d565b5b600061381f868287016137a3565b9350506020613830868287016137a3565b9250506040613841868287016136ee565b9150509250925092565b6000602082840312156138615761386061354d565b5b600061386f848285016137a3565b91505092915050565b600060ff82169050919050565b61388e81613878565b811461389957600080fd5b50565b6000813590506138ab81613885565b92915050565b6000806000606084860312156138ca576138c961354d565b5b60006138d8868287016136ee565b93505060206138e98682870161389c565b92505060406138fa868287016136ee565b9150509250925092565b600067ffffffffffffffff82169050919050565b61392181613904565b811461392c57600080fd5b50565b60008135905061393e81613918565b92915050565b6000806000806080858703121561395e5761395d61354d565b5b600061396c878288016136ee565b945050602061397d8782880161389c565b935050604061398e8782880161392f565b925050606061399f878288016136ee565b91505092959194509250565b6139b4816136cd565b82525050565b60006020820190506139cf60008301846139ab565b92915050565b6139de816135dc565b81146139e957600080fd5b50565b6000813590506139fb816139d5565b92915050565b60008060408385031215613a1857613a1761354d565b5b6000613a26858286016137a3565b9250506020613a37858286016139ec565b9150509250929050565b60008060008060008060c08789031215613a5e57613a5d61354d565b5b6000613a6c89828a0161392f565b9650506020613a7d89828a0161392f565b9550506040613a8e89828a016137a3565b9450506060613a9f89828a016136ee565b9350506080613ab089828a016136ee565b92505060a0613ac189828a016136ee565b9150509295509295509295565b600080fd5b600080fd5b7f4e487b7100000000000000000000000000000000000000000000000000000000600052604160045260246000fd5b613b1082613661565b810181811067ffffffffffffffff82111715613b2f57613b2e613ad8565b5b80604052505050565b6000613b42613543565b9050613b4e8282613b07565b919050565b600067ffffffffffffffff821115613b6e57613b6d613ad8565b5b613b7782613661565b9050602081019050919050565b82818337600083830152505050565b6000613ba6613ba184613b53565b613b38565b905082815260208101848484011115613bc257613bc1613ad3565b5b613bcd848285613b84565b509392505050565b600082601f830112613bea57613be9613ace565b5b8135613bfa848260208601613b93565b91505092915050565b60008060008060808587031215613c1d57613c1c61354d565b5b6000613c2b878288016137a3565b9450506020613c3c878288016137a3565b9350506040613c4d878288016136ee565b925050606085013567ffffffffffffffff811115613c6e57613c6d613552565b5b613c7a87828801613bd5565b91505092959194509250565b613c8f816135dc565b82525050565b613c9e81613750565b82525050565b613cad816136cd565b82525050565b613cbc81613904565b82525050565b60e082016000820151613cd86000850182613c86565b506020820151613ceb6020850182613c86565b506040820151613cfe6040850182613c95565b506060820151613d116060850182613c95565b506080820151613d246080850182613ca4565b5060a0820151613d3760a0850182613ca4565b5060c0820151613d4a60c0850182613cb3565b50505050565b600060e082019050613d656000830184613cc2565b92915050565b60008060408385031215613d8257613d8161354d565b5b6000613d90858286016137a3565b9250506020613da1858286016137a3565b9150509250929050565b60008060008060008060c08789031215613dc857613dc761354d565b5b6000613dd689828a016137a3565b9650506020613de789828a016136ee565b9550506040613df889828a016136ee565b9450506060613e0989828a016136ee565b9350506080613e1a89828a0161392f565b92505060a0613e2b89828a016136ee565b9150509295509295509295565b7f4e487b7100000000000000000000000000000000000000000000000000000000600052602260045260246000fd5b60006002820490506001821680613e7f57607f821691505b60208210811415613e9357613e92613e38565b5b50919050565b7f4552433732313a20617070726f76656420717565727920666f72206e6f6e657860008201527f697374656e7420746f6b656e0000000000000000000000000000000000000000602082015250565b6000613ef5602c8361361d565b9150613f0082613e99565b604082019050919050565b60006020820190508181036000830152613f2481613ee8565b9050919050565b7f4552433732313a20617070726f76616c20746f2063757272656e74206f776e6560008201527f7200000000000000000000000000000000000000000000000000000000000000602082015250565b6000613f8760218361361d565b9150613f9282613f2b565b604082019050919050565b60006020820190508181036000830152613fb681613f7a565b9050919050565b7f4552433732313a20617070726f76652063616c6c6572206973206e6f74206f7760008201527f6e6572206e6f7220617070726f76656420666f7220616c6c0000000000000000602082015250565b600061401960388361361d565b915061402482613fbd565b604082019050919050565b600060208201905081810360008301526140488161400c565b9050919050565b7f4552433732313a207472616e736665722063616c6c6572206973206e6f74206f60008201527f776e6572206e6f7220617070726f766564000000000000000000000000000000602082015250565b60006140ab60318361361d565b91506140b68261404f565b604082019050919050565b600060208201905081810360008301526140da8161409e565b9050919050565b7f596f75206861766520746f206f776e20736f6d657468696e6720746f2067657460008201527f20697427732076616c7565000000000000000000000000000000000000000000602082015250565b600061413d602b8361361d565b9150614148826140e1565b604082019050919050565b6000602082019050818103600083015261416c81614130565b9050919050565b7f4e487b7100000000000000000000000000000000000000000000000000000000600052601160045260246000fd5b60006141ad826136cd565b91506141b8836136cd565b9250827fffffffffffffffffffffffffffffffffffffffffffffffffffffffffffffffff038211156141ed576141ec614173565b5b828201905092915050565b600060608201905061420d6000830186613762565b61421a6020830185613762565b61422760408301846139ab565b949350505050565b60008151905061423e816139d5565b92915050565b60006020828403121561425a5761425961354d565b5b60006142688482850161422f565b91505092915050565b7f4e487b7100000000000000000000000000000000000000000000000000000000600052603260045260246000fd5b60006040820190506142b56000830185613762565b6142c260208301846139ab565b9392505050565b600060a0820190506142de6000830188613762565b6142eb6020830187613762565b6142f86040830186613762565b61430560608301856139ab565b61431260808301846139ab565b9695505050505050565b60008151905061432b816136d7565b92915050565b6000602082840312156143475761434661354d565b5b60006143558482850161431c565b91505092915050565b7f4552433732313a206f776e657220717565727920666f72206e6f6e657869737460008201527f656e7420746f6b656e0000000000000000000000000000000000000000000000602082015250565b60006143ba60298361361d565b91506143c58261435e565b604082019050919050565b600060208201905081810360008301526143e9816143ad565b9050919050565b7f4552433732313a2062616c616e636520717565727920666f7220746865207a6560008201527f726f206164647265737300000000000000000000000000000000000000000000602082015250565b600061444c602a8361361d565b9150614457826143f0565b604082019050919050565b6000602082019050818103600083015261447b8161443f565b9050919050565b600060a0820190506144976000830188613762565b6144a46020830187613762565b6144b160408301866139ab565b6144be60608301856139ab565b6144cb60808301846139ab565b9695505050505050565b600080604083850312156144ec576144eb61354d565b5b60006144fa8582860161431c565b925050602061450b8582860161431c565b9150509250929050565b7f4552433732314d657461646174613a2055524920717565727920666f72206e6f60008201527f6e6578697374656e7420746f6b656e0000000000000000000000000000000000602082015250565b6000614571602f8361361d565b915061457c82614515565b604082019050919050565b600060208201905081810360008301526145a081614564565b9050919050565b600081905092915050565b60006145bd82613612565b6145c781856145a7565b93506145d781856020860161362e565b80840191505092915050565b60006145ef82856145b2565b91506145fb82846145b2565b91508190509392505050565b7f596f75206861766520746f206f776e20736f6d657468696e6720746f2067657460008201527f206974732076616c756500000000000000000000000000000000000000000000602082015250565b6000614663602a8361361d565b915061466e82614607565b604082019050919050565b6000602082019050818103600083015261469281614656565b9050919050565b6146a281613904565b82525050565b60006060820190506146bd6000830186613762565b6146ca6020830185614699565b6146d760408301846139ab565b949350505050565b6000815190506146ee81613918565b92915050565b6000806000806080858703121561470e5761470d61354d565b5b600061471c878288016146df565b945050602061472d8782880161431c565b935050604061473e8782880161431c565b925050606061474f8782880161431c565b91505092959194509250565b7f4552433732313a206f70657261746f7220717565727920666f72206e6f6e657860008201527f697374656e7420746f6b656e0000000000000000000000000000000000000000602082015250565b60006147b7602c8361361d565b91506147c28261475b565b604082019050919050565b600060208201905081810360008301526147e6816147aa565b9050919050565b7f4552433732313a207472616e73666572206f6620746f6b656e2074686174206960008201527f73206e6f74206f776e0000000000000000000000000000000000000000000000602082015250565b600061484960298361361d565b9150614854826147ed565b604082019050919050565b600060208201905081810360008301526148788161483c565b9050919050565b7f4552433732313a207472616e7366657220746f20746865207a65726f2061646460008201527f7265737300000000000000000000000000000000000000000000000000000000602082015250565b60006148db60248361361d565b91506148e68261487f565b604082019050919050565b6000602082019050818103600083015261490a816148ce565b9050919050565b600061491c826136cd565b9150614927836136cd565b92508282101561493a57614939614173565b5b828203905092915050565b7f4552433732313a20617070726f766520746f2063616c6c657200000000000000600082015250565b600061497b60198361361d565b915061498682614945565b602082019050919050565b600060208201905081810360008301526149aa8161496e565b9050919050565b60006149bc826136cd565b91507fffffffffffffffffffffffffffffffffffffffffffffffffffffffffffffffff8214156149ef576149ee614173565b5b600182019050919050565b7f4552433732313a207472616e7366657220746f206e6f6e20455243373231526560008201527f63656976657220696d706c656d656e7465720000000000000000000000000000602082015250565b6000614a5660328361361d565b9150614a61826149fa565b604082019050919050565b60006020820190508181036000830152614a8581614a49565b9050919050565b7f4e487b7100000000000000000000000000000000000000000000000000000000600052601260045260246000fd5b6000614ac6826136cd565b9150614ad1836136cd565b925082614ae157614ae0614a8c565b5b828204905092915050565b6000614af7826136cd565b9150614b02836136cd565b925082614b1257614b11614a8c565b5b828206905092915050565b7f4552433732313a206d696e7420746f20746865207a65726f2061646472657373600082015250565b6000614b5360208361361d565b9150614b5e82614b1d565b602082019050919050565b60006020820190508181036000830152614b8281614b46565b9050919050565b7f4552433732313a20746f6b656e20616c7265616479206d696e74656400000000600082015250565b6000614bbf601c8361361d565b9150614bca82614b89565b602082019050919050565b60006020820190508181036000830152614bee81614bb2565b9050919050565b600081519050919050565b600082825260208201905092915050565b6000614c1c82614bf5565b614c268185614c00565b9350614c3681856020860161362e565b614c3f81613661565b840191505092915050565b6000608082019050614c5f6000830187613762565b614c6c6020830186613762565b614c7960408301856139ab565b8181036060830152614c8b8184614c11565b905095945050505050565b600081519050614ca581613583565b92915050565b600060208284031215614cc157614cc061354d565b5b6000614ccf84828501614c96565b9150509291505056fea2646970667358221220c8b5fc4718a72f1489cd8a8c6d9467762644c9ad2cd5ba1f8c05ee62fb53de8664736f6c634300080a0033",
  "immutableReferences": {
    "3357": [
      {
        "length": 32,
        "start": 3165
      },
      {
        "length": 32,
        "start": 3504
      },
      {
        "length": 32,
        "start": 3915
      },
      {
        "length": 32,
        "start": 4254
      },
      {
        "length": 32,
        "start": 5242
      },
      {
        "length": 32,
        "start": 5403
      },
      {
        "length": 32,
        "start": 6024
      },
      {
        "length": 32,
        "start": 7765
      },
      {
        "length": 32,
        "start": 8076
      },
      {
        "length": 32,
        "start": 8237
      },
      {
        "length": 32,
        "start": 8576
      },
      {
        "length": 32,
        "start": 9054
      },
      {
        "length": 32,
        "start": 10067
      }
    ],
    "3360": [
      {
        "length": 32,
        "start": 9369
      }
    ]
  },
  "source": "// SPDX-License-Identifier: MIT\r\npragma solidity ^0.8;\r\n\r\n// Some interfaces are needed here\r\nimport \"@openzeppelin/contracts/token/ERC721/ERC721.sol\";\r\nimport \"./interfaces/IERC20.sol\";\r\n\r\ninterface lenderImplementation {\r\n    function leverageLong(address _asset, address _swapper, uint256 _initialCollateralAmount, uint256 _initialBorrowAmount, uint256 _borrowFactor) external returns (uint256, uint256);\r\n    function leverageShort(address _asset, address _swapper, uint256 _initialCollateralAmount, uint256 _initialBorrowAmount, uint256 _borrowFactor) external returns (uint256, uint256);\r\n    function closePosition(address _debtAsset, address _asset, address _swapper, uint256 _debtOwed, uint256 _totalCollateral) external;\r\n}\r\n\r\ninterface bondImplementation {\r\n    function collectAllInterest(address _token) external returns (uint256 _amountCollected);\r\n    function findAndBuyYieldTokens(address _token, uint256 _amount) external returns (uint256 _amountSpent);\r\n    function buyYieldTokens (address _assetPool, uint64 _depositId, uint256 _stableInAmount) external returns (uint64 _fundingID, uint256 fundingMultitokensMinted, uint256 actualFundAmount, uint256 principalFunded);\r\n}\r\n\r\ninterface swapImplementation {\r\n    function swap(address _tokenIn, address _tokenOut, uint _amountIn, uint _amountOutMin, address _to) external returns (uint);\r\n\r\n    function _getAmountOutMin(address _tokenIn, address _tokenOut, uint _amountIn) external view returns (uint);\r\n}\r\n\r\ncontract PhantasmManager is ERC721 {\r\n\r\n    address private owner;\r\n\r\n    /* Set Constants here */\r\n    address private immutable DAI = 0x6B175474E89094C44Da98b954EedeAC495271d0F;\r\n    address private immutable DInterestImpl = 0x6D97eA6e14D35e10b50df9475e9EFaAd1982065E; // ETH address, fix\r\n\r\n    struct Position {\r\n        bool    isLong;\r\n        bool    isInsulated;\r\n        address asset;\r\n        address stablecoin;\r\n        uint256 debtOwed;\r\n        uint256 totalCollateral;\r\n        uint64  lender;\r\n\r\n    }\r\n    // Ledger holds all token ids to tokens\r\n    mapping(uint256 => Position) private positionLedger;\r\n    uint256 counter = 0;\r\n    constructor() ERC721(\"Phantasm Position\", \"SPCTR\") {\r\n        owner = msg.sender;\r\n    }\r\n\r\n    /*\r\n            __      __         _ _     ______                _   _                 \r\n            \\ \\    / /        | | |   |  ____|              | | (_)                \r\n            \\ \\  / /_ _ _   _| | |_  | |__ _   _ _ __   ___| |_ _  ___  _ __  ___ \r\n            \\ \\/ / _` | | | | | __| |  __| | | | '_ \\ / __| __| |/ _ \\| '_ \\/ __|\r\n            \\  / (_| | |_| | | |_  | |  | |_| | | | | (__| |_| | (_) | | | \\__ \\\r\n            \\/ \\__,_|\\__,_|_|\\__| |_|   \\__,_|_| |_|\\___|\\__|_|\\___/|_| |_|___/\r\n                                                                                \r\n                                                                                \r\n    */\r\n    function addPosition(Position memory _newPosition) internal returns(uint256) {\r\n        counter++;\r\n        //Push Position to ledger\r\n        positionLedger[counter] = _newPosition;\r\n\r\n        _mint(msg.sender, counter);\r\n        \r\n        return counter;\r\n    }\r\n    \r\n    function removePosition(uint256 _tokenID) internal {\r\n        _burn(_tokenID);\r\n\r\n        delete positionLedger[_tokenID];\r\n    }\r\n    function viewPosition(uint256 _tokenID) public view returns(Position memory) {\r\n        return positionLedger[_tokenID];\r\n    }\r\n\r\n\r\n    /*\r\n      _____                 _                           _        _   _                 \r\n    |_   _|               | |                         | |      | | (_)                \r\n    | |  _ __ ___  _ __ | | ___ _ __ ___   ___ _ __ | |_ __ _| |_ _  ___  _ __  ___ \r\n    | | | '_ ` _ \\| '_ \\| |/ _ \\ '_ ` _ \\ / _ \\ '_ \\| __/ _` | __| |/ _ \\| '_ \\/ __|\r\n    _| |_| | | | | | |_) | |  __/ | | | | |  __/ | | | || (_| | |_| | (_) | | | \\__ \\\r\n    |_____|_| |_| |_| .__/|_|\\___|_| |_| |_|\\___|_| |_|\\__\\__,_|\\__|_|\\___/|_| |_|___/\r\n                    | |                                                               \r\n                    |_|                                                               \r\n    */\r\n\r\n\r\n    address[] public swapImplementations;\r\n    address[] public lenderImplementations;\r\n    address[] public bondImplementations;\r\n\r\n    modifier onlyOwner {\r\n        require(msg.sender == owner);\r\n        _;\r\n    }\r\n\r\n    function addSwapImplementation(address _implementation) onlyOwner public {\r\n        swapImplementations.push(_implementation);\r\n    }\r\n\r\n    function addLenderImplementation(address _implementation) onlyOwner public {\r\n        lenderImplementations.push(_implementation);\r\n    }\r\n\r\n    function addBondImplementation(address _implementation) onlyOwner public {\r\n        bondImplementations.push(_implementation);\r\n    }\r\n\r\n    /*\r\n         _                                    _             \r\n        | |                                  (_)            \r\n        | |     _____   _____ _ __ __ _  __ _ _ _ __   __ _ \r\n        | |    / _ \\ \\ / / _ \\ '__/ _` |/ _` | | '_ \\ / _` |\r\n        | |___|  __/\\ V /  __/ | | (_| | (_| | | | | | (_| |\r\n        |______\\___| \\_/ \\___|_|  \\__,_|\\__, |_|_| |_|\\__, |\r\n                                        __/ |         __/ |\r\n                                        |___/         |___/ \r\n    */\r\n\r\n    function openLongPositionNFT(\r\n        uint64 _lenderImplementation, \r\n        uint64 _swapImplementation,\r\n        address _longToken,\r\n        uint256 _borrowFactor,\r\n        uint256 _assetAmount,\r\n        uint256 _initialBorrow\r\n) public returns (uint256) {\r\n        //function leverageLong(address _longToken, uint256 _borrowAmount, uint256 _borrowFactor, address _swapImplementation) external;\r\n        // Just to see the functions its actually calling because this part is a bit of a mess\r\n        IERC20(_longToken).transferFrom(msg.sender, address(this), _assetAmount);\r\n        IERC20(_longToken).approve(lenderImplementations[_lenderImplementation], _assetAmount);\r\n        (uint256 totalBorrow, uint256 totalCollateral) = lenderImplementation(lenderImplementations[_lenderImplementation]).leverageLong(_longToken, swapImplementations[_swapImplementation], _assetAmount, _initialBorrow, _borrowFactor);\r\n        \r\n\r\n        Position memory createdPosition;\r\n\r\n        createdPosition.isLong = true;\r\n        createdPosition.isInsulated = false;\r\n        createdPosition.asset = _longToken;\r\n        createdPosition.debtOwed = totalBorrow;\r\n        createdPosition.stablecoin = DAI; // DAI for now\r\n        createdPosition.totalCollateral = totalCollateral;\r\n        createdPosition.lender = _lenderImplementation;\r\n\r\n\r\n        uint256 PositionID = addPosition(createdPosition);\r\n        return PositionID;\r\n    }\r\n\r\n    function closeLongPosition(uint256 _tokenID, uint8 _swapImplementation, uint256 _interestAccured) public {\r\n            require(ownerOf(_tokenID) == msg.sender, \"You have to own something to get its value\");\r\n            Position memory liquidateMe = viewPosition(_tokenID);\r\n            //swap(address _tokenIn, address _tokenOut, uint _amountIn, uint _amountOutMin, address _to)\r\n            // DAI to repay\r\n            uint256 amountToRepay = _interestAccured + liquidateMe.debtOwed;\r\n            IERC20(DAI).transferFrom(msg.sender, address(this), amountToRepay);\r\n            IERC20(DAI).approve(lenderImplementations[liquidateMe.lender], amountToRepay);\r\n            lenderImplementation(lenderImplementations[liquidateMe.lender]).closePosition(DAI, liquidateMe.asset, swapImplementations[_swapImplementation], amountToRepay, liquidateMe.totalCollateral);\r\n\r\n    }\r\n\r\n    function openShortPositionNFT(\r\n        uint64 _lenderImplementation, \r\n        uint64 _swapImplementation,\r\n        address _shortToken,\r\n        uint256 _borrowFactor,\r\n        uint256 _assetAmount,\r\n        uint256 _initialBorrow\r\n        ) public returns (uint256) {\r\n            IERC20(DAI).transferFrom(msg.sender, address(this), _assetAmount);\r\n            IERC20(DAI).approve(lenderImplementations[_lenderImplementation], _assetAmount);\r\n            (uint256 totalBorrow, uint256 totalCollateral) = lenderImplementation(lenderImplementations[_lenderImplementation]).leverageShort(_shortToken, swapImplementations[_swapImplementation], _assetAmount, _initialBorrow, _borrowFactor);\r\n\r\n            Position memory createdPosition;\r\n\r\n            createdPosition.isLong = false;\r\n            createdPosition.isInsulated = false;\r\n            createdPosition.asset = _shortToken;\r\n            createdPosition.debtOwed = totalBorrow;\r\n            createdPosition.stablecoin = DAI; // DAI for now\r\n            createdPosition.totalCollateral = totalCollateral;\r\n            createdPosition.lender = _lenderImplementation;\r\n\r\n\r\n            uint256 PositionID = addPosition(createdPosition);\r\n            return PositionID;\r\n        }\r\n        function closeShortPosition(uint256 _tokenID, uint8 _swapImplementation, uint256 _interestAccured) public {\r\n            require(ownerOf(_tokenID) == msg.sender, \"You have to own something to get it's value\");\r\n            Position memory liquidateMe = viewPosition(_tokenID);\r\n            //swap(address _tokenIn, address _tokenOut, uint _amountIn, uint _amountOutMin, address _to)\r\n            // DAI to repay\r\n            uint256 amountToRepay = _interestAccured + liquidateMe.debtOwed;\r\n            IERC20(liquidateMe.asset).transferFrom(msg.sender, address(this), amountToRepay);\r\n            IERC20(liquidateMe.asset).approve(lenderImplementations[liquidateMe.lender], amountToRepay);\r\n            lenderImplementation(lenderImplementations[liquidateMe.lender]).closePosition(liquidateMe.asset, DAI, swapImplementations[_swapImplementation], amountToRepay, liquidateMe.totalCollateral);\r\n\r\n    }\r\n\r\n/*\r\n    _____                 _       _           _ \r\n    |_   _|               | |     | |         | |\r\n    | |  _ __  ___ _   _| | __ _| |_ ___  __| |\r\n    | | | '_ \\/ __| | | | |/ _` | __/ _ \\/ _` |\r\n    _| |_| | | \\__ \\ |_| | | (_| | ||  __/ (_| |\r\n    |_____|_| |_|___/\\__,_|_|\\__,_|\\__\\___|\\__,_|\r\n                                              \r\n*/\r\n    function openInsulatedLongPositionNFT(\r\n        address _longToken,\r\n        uint256 _borrowFactor,\r\n        uint256 _assetAmount,\r\n        uint256 _initialBorrow,\r\n        uint64 _depositId,\r\n        uint256 stableFundAmount\r\n) public returns (uint256) {\r\n        //function leverageLong(address _longToken, uint256 _borrowAmount, uint256 _borrowFactor, address _swapImplementation) external;\r\n        // Just to see the functions its actually calling because this part is a bit of a mess\r\n        IERC20(_longToken).transferFrom(msg.sender, address(this), _assetAmount);\r\n\r\n        // Insure against DAI you will be borrowing\r\n        IERC20(DAI).transferFrom(msg.sender,bondImplementations[0], stableFundAmount);      \r\n\r\n        bondImplementation(bondImplementations[0]).buyYieldTokens(DInterestImpl, _depositId, stableFundAmount);\r\n        \r\n        IERC20(_longToken).approve(lenderImplementations[0], _assetAmount);\r\n\r\n        (uint256 totalBorrow, uint256 totalCollateral) = lenderImplementation(lenderImplementations[0]).leverageLong(_longToken, swapImplementations[0], _assetAmount, _initialBorrow, _borrowFactor);\r\n        \r\n\r\n\r\n        Position memory createdPosition;\r\n\r\n        createdPosition.isLong = true;\r\n        createdPosition.isInsulated = true;\r\n        createdPosition.asset = _longToken;\r\n        createdPosition.debtOwed = totalBorrow;\r\n        createdPosition.stablecoin = DAI; // DAI for now\r\n        createdPosition.totalCollateral = totalCollateral;\r\n        createdPosition.lender = 0;\r\n\r\n\r\n        uint256 PositionID = addPosition(createdPosition);\r\n        return PositionID;\r\n    }\r\n\r\n    function closeInsulatedLongPosition(uint256 _tokenID, uint8 _swapImplementation, uint64 _bondImplementation, uint256 _tipFee) public {\r\n        require(ownerOf(_tokenID) == msg.sender, \"You have to own something to get it's value\");\r\n        // _tipFee is just incase bond doesn't accure exactly the same and you need to give it a lil boost\r\n        Position memory liquidateMe = viewPosition(_tokenID);\r\n        require(liquidateMe.isInsulated);\r\n        IERC20(DAI).transferFrom(msg.sender, address(this), liquidateMe.debtOwed + _tipFee);\r\n        uint256 amountCollected = bondImplementation(bondImplementations[_bondImplementation]).collectAllInterest(liquidateMe.stablecoin);\r\n        //swap(address _tokenIn, address _tokenOut, uint _amountIn, uint _amountOutMin, address _to)\r\n        // DAI to repay\r\n        uint256 amountToRepay = amountCollected + liquidateMe.debtOwed + _tipFee;\r\n        IERC20(DAI).approve(lenderImplementations[liquidateMe.lender], amountToRepay);\r\n        lenderImplementation(lenderImplementations[liquidateMe.lender]).closePosition(DAI, liquidateMe.asset, swapImplementations[_swapImplementation], amountToRepay, liquidateMe.totalCollateral);\r\n    }\r\n\r\n\r\n\r\n}",
  "sourcePath": "B:\\Nebula Labs\\PhantasmV1-Contracts\\contracts\\PhantasmManager.sol",
  "compiler": {
    "name": "solc",
    "version": "0.8.10+commit.fc410830.Emscripten.clang"
  },
  "schemaVersion": "3.4.2",
  "updatedAt": "2022-01-16T18:27:53.066Z",
  "devdoc": {
    "kind": "dev",
    "methods": {
      "approve(address,uint256)": {
        "details": "See {IERC721-approve}."
      },
      "balanceOf(address)": {
        "details": "See {IERC721-balanceOf}."
      },
      "getApproved(uint256)": {
        "details": "See {IERC721-getApproved}."
      },
      "isApprovedForAll(address,address)": {
        "details": "See {IERC721-isApprovedForAll}."
      },
      "name()": {
        "details": "See {IERC721Metadata-name}."
      },
      "ownerOf(uint256)": {
        "details": "See {IERC721-ownerOf}."
      },
      "safeTransferFrom(address,address,uint256)": {
        "details": "See {IERC721-safeTransferFrom}."
      },
      "safeTransferFrom(address,address,uint256,bytes)": {
        "details": "See {IERC721-safeTransferFrom}."
      },
      "setApprovalForAll(address,bool)": {
        "details": "See {IERC721-setApprovalForAll}."
      },
      "supportsInterface(bytes4)": {
        "details": "See {IERC165-supportsInterface}."
      },
      "symbol()": {
        "details": "See {IERC721Metadata-symbol}."
      },
      "tokenURI(uint256)": {
        "details": "See {IERC721Metadata-tokenURI}."
      },
      "transferFrom(address,address,uint256)": {
        "details": "See {IERC721-transferFrom}."
      }
    },
    "version": 1
  },
  "userdoc": {
    "kind": "user",
    "methods": {},
    "version": 1
  }
}