{
  "contractName": "Uniswap",
  "abi": [
    {
      "inputs": [],
      "name": "DAI",
      "outputs": [
        {
          "internalType": "address",
          "name": "",
          "type": "address"
        }
      ],
      "stateMutability": "view",
      "type": "function"
    },
    {
      "inputs": [],
      "name": "USDC",
      "outputs": [
        {
          "internalType": "address",
          "name": "",
          "type": "address"
        }
      ],
      "stateMutability": "view",
      "type": "function"
    },
    {
      "inputs": [],
      "name": "WETH9",
      "outputs": [
        {
          "internalType": "address",
          "name": "",
          "type": "address"
        }
      ],
      "stateMutability": "view",
      "type": "function"
    },
    {
      "inputs": [],
      "name": "poolFee",
      "outputs": [
        {
          "internalType": "int24",
          "name": "",
          "type": "int24"
        }
      ],
      "stateMutability": "view",
      "type": "function"
    },
    {
      "inputs": [],
      "name": "stablefee",
      "outputs": [
        {
          "internalType": "int24",
          "name": "",
          "type": "int24"
        }
      ],
      "stateMutability": "view",
      "type": "function"
    },
    {
      "inputs": [],
      "name": "swapRouter",
      "outputs": [
        {
          "internalType": "contract ISwapRouter",
          "name": "",
          "type": "address"
        }
      ],
      "stateMutability": "view",
      "type": "function"
    },
    {
      "inputs": [
        {
          "internalType": "address",
          "name": "_tokenIn",
          "type": "address"
        },
        {
          "internalType": "address",
          "name": "_tokenOut",
          "type": "address"
        },
        {
          "internalType": "uint256",
          "name": "_amountIn",
          "type": "uint256"
        },
        {
          "internalType": "uint256",
          "name": "_amountOutMin",
          "type": "uint256"
        },
        {
          "internalType": "address",
          "name": "_to",
          "type": "address"
        }
      ],
      "name": "swap",
      "outputs": [
        {
          "internalType": "uint256",
          "name": "amountOut",
          "type": "uint256"
        }
      ],
      "stateMutability": "nonpayable",
      "type": "function"
    }
  ],
  "bytecode": "0x608060405234801561001057600080fd5b50610d03806100206000396000f3fe608060405234801561001057600080fd5b506004361061007d5760003560e01c806389a302711161005b57806389a30271146100dc578063c31c9c07146100fa578063d5bcb9b514610118578063e0bab4c4146101485761007d565b8063089fe6aa146100825780634aa4a4fc146100a057806355c31494146100be575b600080fd5b61008a610166565b6040516100979190610661565b60405180910390f35b6100a861016c565b6040516100b591906106bd565b60405180910390f35b6100c6610184565b6040516100d39190610661565b60405180910390f35b6100e461018a565b6040516100f191906106bd565b60405180910390f35b6101026101a2565b60405161010f9190610737565b60405180910390f35b610132600480360381019061012d91906107b9565b6101ba565b60405161013f9190610843565b60405180910390f35b6101506104d8565b60405161015d91906106bd565b60405180910390f35b610bb881565b73c02aaa39b223fe8d0a0e5c4f27ead9083c756cc281565b610bb881565b73a0b86991c6218b36c1d19d4a2e9eb0ce3606eb4881565b73e592427a0aece92de3edee1f18e0157c0586156481565b60008573ffffffffffffffffffffffffffffffffffffffff166323b872dd3330876040518463ffffffff1660e01b81526004016101f99392919061085e565b6020604051808303816000875af1158015610218573d6000803e3d6000fd5b505050506040513d601f19601f8201168201806040525081019061023c91906108cd565b5061025c8673e592427a0aece92de3edee1f18e0157c05861564866104f0565b60008084141561026f5760019050610273565b8390505b60006040518060a0016040528089610bb873a0b86991c6218b36c1d19d4a2e9eb0ce3606eb48610bb88c6040516020016102b1959493929190610978565b60405160208183030381529060405281526020013073ffffffffffffffffffffffffffffffffffffffff168152602001428152602001878152602001838152509050600073e592427a0aece92de3edee1f18e0157c0586156473ffffffffffffffffffffffffffffffffffffffff1663c04b8d59836040518263ffffffff1660e01b81526004016103429190610b04565b6020604051808303816000875af1158015610361573d6000803e3d6000fd5b505050506040513d601f19601f820116820180604052508101906103859190610b3b565b905060008114156103cb576040517f08c379a00000000000000000000000000000000000000000000000000000000081526004016103c290610bc5565b60405180910390fd5b60008873ffffffffffffffffffffffffffffffffffffffff166370a08231306040518263ffffffff1660e01b815260040161040691906106bd565b602060405180830381865afa158015610423573d6000803e3d6000fd5b505050506040513d601f19601f820116820180604052508101906104479190610b3b565b90508873ffffffffffffffffffffffffffffffffffffffff1663a9059cbb87836040518363ffffffff1660e01b8152600401610484929190610be5565b6020604051808303816000875af11580156104a3573d6000803e3d6000fd5b505050506040513d601f19601f820116820180604052508101906104c791906108cd565b508094505050505095945050505050565b736b175474e89094c44da98b954eedeac495271d0f81565b6000808473ffffffffffffffffffffffffffffffffffffffff1663095ea7b360e01b8585604051602401610525929190610be5565b604051602081830303815290604052907bffffffffffffffffffffffffffffffffffffffffffffffffffffffff19166020820180517bffffffffffffffffffffffffffffffffffffffffffffffffffffffff838183161783525050505060405161058f9190610c4a565b6000604051808303816000865af19150503d80600081146105cc576040519150601f19603f3d011682016040523d82523d6000602084013e6105d1565b606091505b50915091508180156105ff57506000815114806105fe5750808060200190518101906105fd91906108cd565b5b5b61063e576040517f08c379a000000000000000000000000000000000000000000000000000000000815260040161063590610cad565b60405180910390fd5b5050505050565b60008160020b9050919050565b61065b81610645565b82525050565b60006020820190506106766000830184610652565b92915050565b600073ffffffffffffffffffffffffffffffffffffffff82169050919050565b60006106a78261067c565b9050919050565b6106b78161069c565b82525050565b60006020820190506106d260008301846106ae565b92915050565b6000819050919050565b60006106fd6106f86106f38461067c565b6106d8565b61067c565b9050919050565b600061070f826106e2565b9050919050565b600061072182610704565b9050919050565b61073181610716565b82525050565b600060208201905061074c6000830184610728565b92915050565b600080fd5b6107608161069c565b811461076b57600080fd5b50565b60008135905061077d81610757565b92915050565b6000819050919050565b61079681610783565b81146107a157600080fd5b50565b6000813590506107b38161078d565b92915050565b600080600080600060a086880312156107d5576107d4610752565b5b60006107e38882890161076e565b95505060206107f48882890161076e565b9450506040610805888289016107a4565b9350506060610816888289016107a4565b92505060806108278882890161076e565b9150509295509295909350565b61083d81610783565b82525050565b60006020820190506108586000830184610834565b92915050565b600060608201905061087360008301866106ae565b61088060208301856106ae565b61088d6040830184610834565b949350505050565b60008115159050919050565b6108aa81610895565b81146108b557600080fd5b50565b6000815190506108c7816108a1565b92915050565b6000602082840312156108e3576108e2610752565b5b60006108f1848285016108b8565b91505092915050565b60008160601b9050919050565b6000610912826108fa565b9050919050565b600061092482610907565b9050919050565b61093c6109378261069c565b610919565b82525050565b60008160e81b9050919050565b600061095a82610942565b9050919050565b61097261096d82610645565b61094f565b82525050565b6000610984828861092b565b6014820191506109948287610961565b6003820191506109a4828661092b565b6014820191506109b48285610961565b6003820191506109c4828461092b565b6014820191508190509695505050505050565b600081519050919050565b600082825260208201905092915050565b60005b83811015610a115780820151818401526020810190506109f6565b83811115610a20576000848401525b50505050565b6000601f19601f8301169050919050565b6000610a42826109d7565b610a4c81856109e2565b9350610a5c8185602086016109f3565b610a6581610a26565b840191505092915050565b610a798161069c565b82525050565b610a8881610783565b82525050565b600060a0830160008301518482036000860152610aab8282610a37565b9150506020830151610ac06020860182610a70565b506040830151610ad36040860182610a7f565b506060830151610ae66060860182610a7f565b506080830151610af96080860182610a7f565b508091505092915050565b60006020820190508181036000830152610b1e8184610a8e565b905092915050565b600081519050610b358161078d565b92915050565b600060208284031215610b5157610b50610752565b5b6000610b5f84828501610b26565b91505092915050565b600082825260208201905092915050565b7f5377617020776f756c64277665206275726e6564206d6f6e6579000000000000600082015250565b6000610baf601a83610b68565b9150610bba82610b79565b602082019050919050565b60006020820190508181036000830152610bde81610ba2565b9050919050565b6000604082019050610bfa60008301856106ae565b610c076020830184610834565b9392505050565b600081905092915050565b6000610c24826109d7565b610c2e8185610c0e565b9350610c3e8185602086016109f3565b80840191505092915050565b6000610c568284610c19565b915081905092915050565b7f5341000000000000000000000000000000000000000000000000000000000000600082015250565b6000610c97600283610b68565b9150610ca282610c61565b602082019050919050565b60006020820190508181036000830152610cc681610c8a565b905091905056fea26469706673582212201bad4f10224efeb20d99afaa35674a00f46bd458b78ab4db798883b02f2258a764736f6c634300080a0033",
  "immutableReferences": {},
  "source": "// SPDX-License-Identifier: MIT\r\npragma solidity ^0.8;\r\npragma abicoder v2;\r\n\r\nimport './interfaces/IUniswap.sol';\r\nimport '@openzeppelin/contracts/token/ERC20/IERC20.sol';\r\nimport '@uniswap/v3-periphery/contracts/interfaces/ISwapRouter.sol';\r\nimport '@uniswap/v3-periphery/contracts/libraries/TransferHelper.sol';\r\n\r\n// Thank the Uniswap docs for this last minute migration\r\ncontract Uniswap {\r\n    /*\r\n               \r\n               \r\n              \r\n    */    \r\n\r\n    address public constant DAI = 0x6B175474E89094C44Da98b954EedeAC495271d0F;\r\n    address public constant WETH9 = 0xC02aaA39b223FE8D0A0e5C4F27eAD9083C756Cc2;    \r\n    address public constant USDC = 0xA0b86991c6218b36c1d19D4a2e9Eb0cE3606eB48;\r\n    // For this we will set the pool fee to 0.3%.    \r\n    int24 public constant poolFee = 3000;\r\n    \r\n    int24 public constant stablefee = 3000;\r\n    ISwapRouter public constant swapRouter = ISwapRouter(0xE592427A0AEce92De3Edee1F18E0157C05861564);\r\n\r\n    function swap(address _tokenIn, address _tokenOut, uint _amountIn, uint _amountOutMin, address _to) public returns (uint256 amountOut) {\r\n        IERC20(_tokenIn).transferFrom(msg.sender, address(this), _amountIn);\r\n        \r\n        TransferHelper.safeApprove(_tokenIn, address(swapRouter), _amountIn);\r\n        // Multiple pool swaps are encoded through bytes called a `path`. A path is a sequence of token addresses and poolFees that define the pools used in the swaps.\r\n        // The format for pool encoding is (tokenIn, fee, tokenOut/tokenIn, fee, tokenOut) where tokenIn/tokenOut parameter is the shared token across the pools.\r\n        // Since we are swapping DAI to USDC and then USDC to WETH9 the path encoding is (DAI, 0.3%, USDC, 0.3%, WETH9).\r\n        uint amountOutMin;\r\n\r\n        if(_amountOutMin == 0){\r\n            amountOutMin = 1;\r\n        } else{\r\n            amountOutMin = _amountOutMin;\r\n        }\r\n        ISwapRouter.ExactInputParams memory params =\r\n            ISwapRouter.ExactInputParams({\r\n                path: abi.encodePacked(_tokenIn, stablefee, USDC, poolFee, _tokenOut),\r\n                recipient: address(this),\r\n                deadline: block.timestamp,\r\n                amountIn: _amountIn,\r\n                amountOutMinimum: amountOutMin\r\n            });\r\n\r\n        // Executes the swap.\r\n        uint tokensReturned = swapRouter.exactInput(params);\r\n        if(tokensReturned == 0){\r\n            revert(\"Swap would've burned money\");\r\n        }\r\n        uint256 tokensOut = IERC20(_tokenOut).balanceOf(address(this));\r\n        IERC20(_tokenOut).transfer(_to,tokensOut);\r\n        return tokensOut;\r\n    }\r\n}",
  "sourcePath": "B:\\Nebula Labs\\PhantasmV1-Contracts\\contracts\\Uniswap.sol",
  "compiler": {
    "name": "solc",
    "version": "0.8.10+commit.fc410830.Emscripten.clang"
  },
  "schemaVersion": "3.4.2",
  "updatedAt": "2022-01-16T18:27:53.135Z",
  "devdoc": {
    "kind": "dev",
    "methods": {},
    "version": 1
  },
  "userdoc": {
    "kind": "user",
    "methods": {},
    "version": 1
  }
}